{
  "_format": "hh-sol-artifact-1",
  "contractName": "VCCToken",
  "sourceName": "contracts/CarbonCredit.sol",
  "abi": [
    {
      "inputs": [],
      "stateMutability": "nonpayable",
      "type": "constructor"
    },
    {
      "anonymous": false,
      "inputs": [
        {
          "indexed": true,
          "internalType": "address",
          "name": "owner",
          "type": "address"
        },
        {
          "indexed": true,
          "internalType": "address",
          "name": "spender",
          "type": "address"
        },
        {
          "indexed": false,
          "internalType": "uint256",
          "name": "value",
          "type": "uint256"
        }
      ],
      "name": "Approval",
      "type": "event"
    },
    {
      "anonymous": false,
      "inputs": [
        {
          "indexed": true,
          "internalType": "address",
          "name": "from",
          "type": "address"
        },
        {
          "indexed": true,
          "internalType": "address",
          "name": "to",
          "type": "address"
        },
        {
          "indexed": false,
          "internalType": "uint256",
          "name": "value",
          "type": "uint256"
        }
      ],
      "name": "Transfer",
      "type": "event"
    },
    {
      "anonymous": false,
      "inputs": [
        {
          "indexed": false,
          "internalType": "address",
          "name": "beneficiary",
          "type": "address"
        },
        {
          "indexed": false,
          "internalType": "uint256",
          "name": "amount",
          "type": "uint256"
        }
      ],
      "name": "Verified",
      "type": "event"
    },
    {
      "inputs": [],
      "name": "BancorFormula",
      "outputs": [],
      "stateMutability": "nonpayable",
      "type": "function"
    },
    {
      "inputs": [
        {
          "internalType": "address",
          "name": "owner",
          "type": "address"
        },
        {
          "internalType": "address",
          "name": "spender",
          "type": "address"
        }
      ],
      "name": "allowance",
      "outputs": [
        {
          "internalType": "uint256",
          "name": "",
          "type": "uint256"
        }
      ],
      "stateMutability": "view",
      "type": "function"
    },
    {
      "inputs": [
        {
          "internalType": "address",
          "name": "spender",
          "type": "address"
        },
        {
          "internalType": "uint256",
          "name": "amount",
          "type": "uint256"
        }
      ],
      "name": "approve",
      "outputs": [
        {
          "internalType": "bool",
          "name": "",
          "type": "bool"
        }
      ],
      "stateMutability": "nonpayable",
      "type": "function"
    },
    {
      "inputs": [
        {
          "internalType": "address",
          "name": "account",
          "type": "address"
        }
      ],
      "name": "balanceOf",
      "outputs": [
        {
          "internalType": "uint256",
          "name": "",
          "type": "uint256"
        }
      ],
      "stateMutability": "view",
      "type": "function"
    },
    {
      "inputs": [],
      "name": "decimals",
      "outputs": [
        {
          "internalType": "uint8",
          "name": "",
          "type": "uint8"
        }
      ],
      "stateMutability": "view",
      "type": "function"
    },
    {
      "inputs": [
        {
          "internalType": "address",
          "name": "spender",
          "type": "address"
        },
        {
          "internalType": "uint256",
          "name": "subtractedValue",
          "type": "uint256"
        }
      ],
      "name": "decreaseAllowance",
      "outputs": [
        {
          "internalType": "bool",
          "name": "",
          "type": "bool"
        }
      ],
      "stateMutability": "nonpayable",
      "type": "function"
    },
    {
      "inputs": [
        {
          "internalType": "address",
          "name": "spender",
          "type": "address"
        },
        {
          "internalType": "uint256",
          "name": "addedValue",
          "type": "uint256"
        }
      ],
      "name": "increaseAllowance",
      "outputs": [
        {
          "internalType": "bool",
          "name": "",
          "type": "bool"
        }
      ],
      "stateMutability": "nonpayable",
      "type": "function"
    },
    {
      "inputs": [
        {
          "internalType": "address",
          "name": "",
          "type": "address"
        }
      ],
      "name": "metadata",
      "outputs": [
        {
          "internalType": "string",
          "name": "",
          "type": "string"
        }
      ],
      "stateMutability": "view",
      "type": "function"
    },
    {
      "inputs": [],
      "name": "name",
      "outputs": [
        {
          "internalType": "string",
          "name": "",
          "type": "string"
        }
      ],
      "stateMutability": "view",
      "type": "function"
    },
    {
      "inputs": [
        {
          "internalType": "uint256",
          "name": "_baseN",
          "type": "uint256"
        },
        {
          "internalType": "uint256",
          "name": "_baseD",
          "type": "uint256"
        },
        {
          "internalType": "uint32",
          "name": "_expN",
          "type": "uint32"
        },
        {
          "internalType": "uint32",
          "name": "_expD",
          "type": "uint32"
        }
      ],
      "name": "power",
      "outputs": [
        {
          "internalType": "uint256",
          "name": "",
          "type": "uint256"
        },
        {
          "internalType": "uint8",
          "name": "",
          "type": "uint8"
        }
      ],
      "stateMutability": "view",
      "type": "function"
    },
    {
      "inputs": [
        {
          "internalType": "address",
          "name": "",
          "type": "address"
        }
      ],
      "name": "projectDesignDocument",
      "outputs": [
        {
          "internalType": "string",
          "name": "",
          "type": "string"
        }
      ],
      "stateMutability": "view",
      "type": "function"
    },
    {
      "inputs": [
        {
          "internalType": "address",
          "name": "",
          "type": "address"
        }
      ],
      "name": "projectMonitoringReport",
      "outputs": [
        {
          "internalType": "string",
          "name": "",
          "type": "string"
        }
      ],
      "stateMutability": "view",
      "type": "function"
    },
    {
      "inputs": [],
      "name": "symbol",
      "outputs": [
        {
          "internalType": "string",
          "name": "",
          "type": "string"
        }
      ],
      "stateMutability": "view",
      "type": "function"
    },
    {
      "inputs": [],
      "name": "totalSupply",
      "outputs": [
        {
          "internalType": "uint256",
          "name": "",
          "type": "uint256"
        }
      ],
      "stateMutability": "view",
      "type": "function"
    },
    {
      "inputs": [
        {
          "internalType": "address",
          "name": "to",
          "type": "address"
        },
        {
          "internalType": "uint256",
          "name": "amount",
          "type": "uint256"
        }
      ],
      "name": "transfer",
      "outputs": [
        {
          "internalType": "bool",
          "name": "",
          "type": "bool"
        }
      ],
      "stateMutability": "nonpayable",
      "type": "function"
    },
    {
      "inputs": [
        {
          "internalType": "address",
          "name": "from",
          "type": "address"
        },
        {
          "internalType": "address",
          "name": "to",
          "type": "address"
        },
        {
          "internalType": "uint256",
          "name": "amount",
          "type": "uint256"
        }
      ],
      "name": "transferFrom",
      "outputs": [
        {
          "internalType": "bool",
          "name": "",
          "type": "bool"
        }
      ],
      "stateMutability": "nonpayable",
      "type": "function"
    },
    {
      "inputs": [
        {
          "internalType": "string",
          "name": "_metadata",
          "type": "string"
        },
        {
          "internalType": "string",
          "name": "_projectDesignDocument",
          "type": "string"
        },
        {
          "internalType": "uint256",
          "name": "_treeDBH",
          "type": "uint256"
        }
      ],
      "name": "verify",
      "outputs": [],
      "stateMutability": "nonpayable",
      "type": "function"
    }
  ],
  "bytecode": "0x60806040523480156200001157600080fd5b506040518060400160405280601881526020017f56657269666961626c6520436172626f6e2043726564697400000000000000008152506040518060400160405280600381526020017f5643430000000000000000000000000000000000000000000000000000000000815250816003908051906020019062000096929190620000b8565b508060049080519060200190620000af929190620000b8565b505050620001cd565b828054620000c69062000197565b90600052602060002090601f016020900481019282620000ea576000855562000136565b82601f106200010557805160ff191683800117855562000136565b8280016001018555821562000136579182015b828111156200013557825182559160200191906001019062000118565b5b50905062000145919062000149565b5090565b5b80821115620001645760008160009055506001016200014a565b5090565b7f4e487b7100000000000000000000000000000000000000000000000000000000600052602260045260246000fd5b60006002820490506001821680620001b057607f821691505b60208210811415620001c757620001c662000168565b5b50919050565b614d2780620001dd6000396000f3fe608060405234801561001057600080fd5b506004361061010b5760003560e01c806339509351116100a257806395d89b411161007157806395d89b41146102e1578063a457c2d7146102ff578063a9059cbb1461032f578063b04a79501461035f578063dd62ed3e1461038f5761010b565b806339509351146102475780634339868514610277578063633bcaed1461028157806370a08231146102b15761010b565b806323b872dd116100de57806323b872dd146101985780632ba21572146101c8578063313ce567146101f857806332833d51146102165761010b565b806306fdde0314610110578063095ea7b31461012e57806318160ddd1461015e578063206e33e91461017c575b600080fd5b6101186103bf565b6040516101259190613e68565b60405180910390f35b61014860048036038101906101439190613f32565b610451565b6040516101559190613f8d565b60405180910390f35b610166610474565b6040516101739190613fb7565b60405180910390f35b61019660048036038101906101919190614107565b61047e565b005b6101b260048036038101906101ad9190614192565b61070e565b6040516101bf9190613f8d565b60405180910390f35b6101e260048036038101906101dd91906141e5565b61073d565b6040516101ef9190613e68565b60405180910390f35b6102006107dd565b60405161020d919061422e565b60405180910390f35b610230600480360381019061022b9190614285565b6107e6565b60405161023e9291906142ec565b60405180910390f35b610261600480360381019061025c9190613f32565b6108fe565b60405161026e9190613f8d565b60405180910390f35b61027f610935565b005b61029b600480360381019061029691906141e5565b6119a7565b6040516102a89190613e68565b60405180910390f35b6102cb60048036038101906102c691906141e5565b611a47565b6040516102d89190613fb7565b60405180910390f35b6102e9611a8f565b6040516102f69190613e68565b60405180910390f35b61031960048036038101906103149190613f32565b611b21565b6040516103269190613f8d565b60405180910390f35b61034960048036038101906103449190613f32565b611b98565b6040516103569190613f8d565b60405180910390f35b610379600480360381019061037491906141e5565b611bbb565b6040516103869190613e68565b60405180910390f35b6103a960048036038101906103a49190614315565b611c5b565b6040516103b69190613fb7565b60405180910390f35b6060600380546103ce90614384565b80601f01602080910402602001604051908101604052809291908181526020018280546103fa90614384565b80156104475780601f1061041c57610100808354040283529160200191610447565b820191906000526020600020905b81548152906001019060200180831161042a57829003601f168201915b5050505050905090565b60008061045c611ce2565b9050610469818585611cea565b600191505092915050565b6000600254905090565b6000805b605581116105dd5760008061049e8560016163656127106107e6565b60ff16915091506127106103e6836104b691906143e5565b6104c0919061446e565b91506000806104ed8360026104d591906145d2565b856104e0919061446e565b60016102fb6103e86107e6565b60ff16915091506103e860d08361050491906143e5565b61050e919061446e565b91506000620425d490506000620186a0905060006055886055610531919061461d565b8661053c91906143e5565b610546919061446e565b905060006064607c8361055991906143e5565b610563919061446e565b905060006064602f8361057691906143e5565b610580919061446e565b905085600261058f91906145d2565b612710618f3a836105a091906143e5565b6105aa919061446e565b6105b4919061446e565b8b6105bf9190614651565b9a5050505050505050505080806105d5906146a7565b915050610482565b5061061d6040518060400160405280600e81526020017f746f74616c20434f322069733a2000000000000000000000000000000000000081525082611eb5565b6106273382611f51565b83600560003373ffffffffffffffffffffffffffffffffffffffff1673ffffffffffffffffffffffffffffffffffffffff168152602001908152602001600020908051906020019061067a929190613d2c565b5082600660003373ffffffffffffffffffffffffffffffffffffffff1673ffffffffffffffffffffffffffffffffffffffff16815260200190815260200160002090805190602001906106ce929190613d2c565b507f7c4bd613345b3aec2140d4c4c96782cda06d72b1a593fbb20a72300354f4c33633826040516107009291906146ff565b60405180910390a150505050565b600080610719611ce2565b90506107268582856120a8565b610731858585612134565b60019150509392505050565b6005602052806000526040600020600091509050805461075c90614384565b80601f016020809104026020016040519081016040528092919081815260200182805461078890614384565b80156107d55780601f106107aa576101008083540402835291602001916107d5565b820191906000526020600020905b8154815290600101906020018083116107b857829003601f168201915b505050505081565b60006012905090565b600080700200000000000000000000000000000000861061080a57610809614728565b5b600080866f800000000000000000000000000000008961082a91906143e5565b610834919061446e565b905070015bf0a8b1457695355fb8ac404e7a79e381101561085f57610858816123ac565b915061086b565b61086881612b25565b91505b60008563ffffffff168763ffffffff168461088691906143e5565b610890919061446e565b90507008000000000000000000000000000000008110156108c2576108b481612c7f565b607f945094505050506108f5565b60006108cd82613483565b90506108eb81607f6108df9190614757565b60ff1683901c82613565565b8195509550505050505b94509492505050565b600080610909611ce2565b905061092a81858561091b8589611c5b565b6109259190614651565b611cea565b600191505092915050565b701c35fedd14ffffffffffffffffffffffff600860206080811061095c5761095b61478b565b5b0181905550701b0ce43b323fffffffffffffffffffffff60086021608081106109885761098761478b565b5b01819055507019f0028ec1ffffffffffffffffffffffff60086022608081106109b4576109b361478b565b5b01819055507018ded91f0e7fffffffffffffffffffffff60086023608081106109e0576109df61478b565b5b01819055507017d8ec7f0417ffffffffffffffffffffff6008602460808110610a0c57610a0b61478b565b5b01819055507016ddc6556cdbffffffffffffffffffffff6008602560808110610a3857610a3761478b565b5b01819055507015ecf52776a1ffffffffffffffffffffff6008602660808110610a6457610a6361478b565b5b01819055507015060c256cb2ffffffffffffffffffffff6008602760808110610a9057610a8f61478b565b5b0181905550701428a2f98d72ffffffffffffffffffffff6008602860808110610abc57610abb61478b565b5b01819055507013545598e5c23fffffffffffffffffffff6008602960808110610ae857610ae761478b565b5b0181905550701288c4161ce1dfffffffffffffffffffff6008602a60808110610b1457610b1361478b565b5b01819055507011c592761c666fffffffffffffffffffff6008602b60808110610b4057610b3f61478b565b5b018190555070110a688680a757ffffffffffffffffffff6008602c60808110610b6c57610b6b61478b565b5b0181905550701056f1b5bedf77ffffffffffffffffffff6008602d60808110610b9857610b9761478b565b5b0181905550700faadceceeff8bffffffffffffffffffff6008602e60808110610bc457610bc361478b565b5b0181905550700f05dc6b27edadffffffffffffffffffff6008602f60808110610bf057610bef61478b565b5b0181905550700e67a5a25da4107fffffffffffffffffff6008603060808110610c1c57610c1b61478b565b5b0181905550700dcff115b14eedffffffffffffffffffff6008603160808110610c4857610c4761478b565b5b0181905550700d3e7a392431239fffffffffffffffffff6008603260808110610c7457610c7361478b565b5b0181905550700cb2ff529eb71e4fffffffffffffffffff6008603360808110610ca057610c9f61478b565b5b0181905550700c2d415c3db974afffffffffffffffffff6008603460808110610ccc57610ccb61478b565b5b0181905550700bad03e7d883f69bffffffffffffffffff6008603560808110610cf857610cf761478b565b5b0181905550700b320d03b2c343d5ffffffffffffffffff6008603660808110610d2457610d2361478b565b5b0181905550700abc25204e02828dffffffffffffffffff6008603760808110610d5057610d4f61478b565b5b0181905550700a4b16f74ee4bb207fffffffffffffffff6008603860808110610d7c57610d7b61478b565b5b01819055507009deaf736ac1f569ffffffffffffffffff6008603960808110610da857610da761478b565b5b0181905550700976bd9952c7aa957fffffffffffffffff6008603a60808110610dd457610dd361478b565b5b01819055507009131271922eaa606fffffffffffffffff6008603b60808110610e0057610dff61478b565b5b01819055507008b380f3558668c46fffffffffffffffff6008603c60808110610e2c57610e2b61478b565b5b0181905550700857ddf0117efa215bffffffffffffffff6008603d60808110610e5857610e5761478b565b5b01819055507007ffffffffffffffffffffffffffffffff6008603e60808110610e8457610e8361478b565b5b01819055507007abbf6f6abb9d087fffffffffffffffff6008603f60808110610eb057610eaf61478b565b5b018190555070075af62cbac95f7dfa7fffffffffffffff6008604060808110610edc57610edb61478b565b5b018190555070070d7fb7452e187ac13fffffffffffffff6008604160808110610f0857610f0761478b565b5b01819055507006c3390ecc8af379295fffffffffffffff6008604260808110610f3457610f3361478b565b5b018190555070067c00a3b07ffc01fd6fffffffffffffff6008604360808110610f6057610f5f61478b565b5b0181905550700637b647c39cbb9d3d27ffffffffffffff6008604460808110610f8c57610f8b61478b565b5b01819055507005f63b1fc104dbd39587ffffffffffffff6008604560808110610fb857610fb761478b565b5b01819055507005b771955b36e12f7235ffffffffffffff6008604660808110610fe457610fe361478b565b5b018190555070057b3d49dda84556d6f6ffffffffffffff60086047608081106110105761100f61478b565b5b018190555070054183095b2c8ececf30ffffffffffffff600860486080811061103c5761103b61478b565b5b018190555070050a28be635ca2b888f77fffffffffffff60086049608081106110685761106761478b565b5b01819055507004d5156639708c9db33c3fffffffffffff6008604a608081106110945761109361478b565b5b01819055507004a23105873875bd52dfdfffffffffffff6008604b608081106110c0576110bf61478b565b5b0181905550700471649d87199aa990756fffffffffffff6008604c608081106110ec576110eb61478b565b5b01819055507004429a21a029d4c1457cfbffffffffffff6008604d608081106111185761111761478b565b5b0181905550700415bc6d6fb7dd71af2cb3ffffffffffff6008604e608081106111445761114361478b565b5b01819055507003eab73b3bbfe282243ce1ffffffffffff6008604f608081106111705761116f61478b565b5b01819055507003c1771ac9fb6b4c18e229ffffffffffff600860506080811061119c5761119b61478b565b5b0181905550700399e96897690418f785257fffffffffff60086051608081106111c8576111c761478b565b5b0181905550700373fc456c53bb779bf0ea9fffffffffff60086052608081106111f4576111f361478b565b5b018190555070034f9e8e490c48e67e6ab8bfffffffffff60086053608081106112205761121f61478b565b5b018190555070032cbfd4a7adc790560b3337ffffffffff600860546080811061124c5761124b61478b565b5b018190555070030b50570f6e5d2acca94613ffffffffff60086055608081106112785761127761478b565b5b01819055507002eb40f9f620fda6b56c2861ffffffffff60086056608081106112a4576112a361478b565b5b01819055507002cc8340ecb0d0f520a6af58ffffffffff60086057608081106112d0576112cf61478b565b5b01819055507002af09481380a0a35cf1ba02ffffffffff60086058608081106112fc576112fb61478b565b5b0181905550700292c5bdd3b92ec810287b1b3fffffffff60086059608081106113285761132761478b565b5b0181905550700277abdcdab07d5a77ac6d6b9fffffffff6008605a608081106113545761135361478b565b5b018190555070025daf6654b1eaa55fd64df5efffffffff6008605b608081106113805761137f61478b565b5b0181905550700244c49c648baa98192dce88b7ffffffff6008605c608081106113ac576113ab61478b565b5b018190555070022ce03cd5619a311b2471268bffffffff6008605d608081106113d8576113d761478b565b5b0181905550700215f77c045fbe885654a44a0fffffffff6008605e608081106114045761140361478b565b5b01819055507001ffffffffffffffffffffffffffffffff6008605f608081106114305761142f61478b565b5b01819055507001eaefdbdaaee7421fc4d3ede5ffffffff600860606080811061145c5761145b61478b565b5b01819055507001d6bd8b2eb257df7e8ca57b09bfffffff60086061608081106114885761148761478b565b5b01819055507001c35fedd14b861eb0443f7f133fffffff60086062608081106114b4576114b361478b565b5b01819055507001b0ce43b322bcde4a56e8ada5afffffff60086063608081106114e0576114df61478b565b5b018190555070019f0028ec1fff007f5a195a39dfffffff600860646080811061150c5761150b61478b565b5b018190555070018ded91f0e72ee74f49b15ba527ffffff60086065608081106115385761153761478b565b5b018190555070017d8ec7f04136f4e5615fd41a63ffffff60086066608081106115645761156361478b565b5b018190555070016ddc6556cdb84bdc8d12d22e6fffffff60086067608081106115905761158f61478b565b5b018190555070015ecf52776a1155b5bd8395814f7fffff60086068608081106115bc576115bb61478b565b5b018190555070015060c256cb23b3b3cc3754cf40ffffff60086069608081106115e8576115e761478b565b5b01819055507001428a2f98d728ae223ddab715be3fffff6008606a608081106116145761161361478b565b5b018190555070013545598e5c23276ccf0ede68034fffff6008606b608081106116405761163f61478b565b5b01819055507001288c4161ce1d6f54b7f61081194fffff6008606c6080811061166c5761166b61478b565b5b018190555070011c592761c666aa641d5a01a40f17ffff6008606d608081106116985761169761478b565b5b0181905550700110a688680a7530515f3e6e6cfdcdffff6008606e608081106116c4576116c361478b565b5b01819055507001056f1b5bedf75c6bcb2ce8aed428ffff6008606f608081106116f0576116ef61478b565b5b01819055506ffaadceceeff8a0890f3875f008277fff600860706080811061171b5761171a61478b565b5b01819055506ff05dc6b27edad306388a600f6ba0bfff60086071608081106117465761174561478b565b5b01819055506fe67a5a25da41063de1495d5b18cdbfff60086072608081106117715761177061478b565b5b01819055506fdcff115b14eedde6fc3aa5353f2e4fff600860736080811061179c5761179b61478b565b5b01819055506fd3e7a3924312399f9aae2e0f868f8fff60086074608081106117c7576117c661478b565b5b01819055506fcb2ff529eb71e41582cccd5a1ee26fff60086075608081106117f2576117f161478b565b5b01819055506fc2d415c3db974ab32a51840c0b67edff600860766080811061181d5761181c61478b565b5b01819055506fbad03e7d883f69ad5b0a186184e06bff60086077608081106118485761184761478b565b5b01819055506fb320d03b2c343d4829abd6075f0cc5ff60086078608081106118735761187261478b565b5b01819055506fabc25204e02828d73c6e80bcdb1a95bf600860796080811061189e5761189d61478b565b5b01819055506fa4b16f74ee4bb2040a1ec6c15fbbf2df6008607a608081106118c9576118c861478b565b5b01819055506f9deaf736ac1f569deb1b5ae3f36c130f6008607b608081106118f4576118f361478b565b5b01819055506f976bd9952c7aa957f5937d790ef650376008607c6080811061191f5761191e61478b565b5b01819055506f9131271922eaa6064b73a22d0bd4f2bf6008607d6080811061194a5761194961478b565b5b01819055506f8b380f3558668c46c91c49a2f8e967b96008607e608081106119755761197461478b565b5b01819055506f857ddf0117efa215952912839f6473e66008607f608081106119a05761199f61478b565b5b0181905550565b600760205280600052604060002060009150905080546119c690614384565b80601f01602080910402602001604051908101604052809291908181526020018280546119f290614384565b8015611a3f5780601f10611a1457610100808354040283529160200191611a3f565b820191906000526020600020905b815481529060010190602001808311611a2257829003601f168201915b505050505081565b60008060008373ffffffffffffffffffffffffffffffffffffffff1673ffffffffffffffffffffffffffffffffffffffff168152602001908152602001600020549050919050565b606060048054611a9e90614384565b80601f0160208091040260200160405190810160405280929190818152602001828054611aca90614384565b8015611b175780601f10611aec57610100808354040283529160200191611b17565b820191906000526020600020905b815481529060010190602001808311611afa57829003601f168201915b5050505050905090565b600080611b2c611ce2565b90506000611b3a8286611c5b565b905083811015611b7f576040517f08c379a0000000000000000000000000000000000000000000000000000000008152600401611b769061482c565b60405180910390fd5b611b8c8286868403611cea565b60019250505092915050565b600080611ba3611ce2565b9050611bb0818585612134565b600191505092915050565b60066020528060005260406000206000915090508054611bda90614384565b80601f0160208091040260200160405190810160405280929190818152602001828054611c0690614384565b8015611c535780601f10611c2857610100808354040283529160200191611c53565b820191906000526020600020905b815481529060010190602001808311611c3657829003601f168201915b505050505081565b6000600160008473ffffffffffffffffffffffffffffffffffffffff1673ffffffffffffffffffffffffffffffffffffffff16815260200190815260200160002060008373ffffffffffffffffffffffffffffffffffffffff1673ffffffffffffffffffffffffffffffffffffffff16815260200190815260200160002054905092915050565b600033905090565b600073ffffffffffffffffffffffffffffffffffffffff168373ffffffffffffffffffffffffffffffffffffffff161415611d5a576040517f08c379a0000000000000000000000000000000000000000000000000000000008152600401611d51906148be565b60405180910390fd5b600073ffffffffffffffffffffffffffffffffffffffff168273ffffffffffffffffffffffffffffffffffffffff161415611dca576040517f08c379a0000000000000000000000000000000000000000000000000000000008152600401611dc190614950565b60405180910390fd5b80600160008573ffffffffffffffffffffffffffffffffffffffff1673ffffffffffffffffffffffffffffffffffffffff16815260200190815260200160002060008473ffffffffffffffffffffffffffffffffffffffff1673ffffffffffffffffffffffffffffffffffffffff168152602001908152602001600020819055508173ffffffffffffffffffffffffffffffffffffffff168373ffffffffffffffffffffffffffffffffffffffff167f8c5be1e5ebec7d5bd14f71427d1e84f3dd0314c0f7b2291e5b200ac8c7c3b92583604051611ea89190613fb7565b60405180910390a3505050565b611f4d8282604051602401611ecb929190614970565b6040516020818303038152906040527f9710a9d0000000000000000000000000000000000000000000000000000000007bffffffffffffffffffffffffffffffffffffffffffffffffffffffff19166020820180517bffffffffffffffffffffffffffffffffffffffffffffffffffffffff8381831617835250505050613c74565b5050565b600073ffffffffffffffffffffffffffffffffffffffff168273ffffffffffffffffffffffffffffffffffffffff161415611fc1576040517f08c379a0000000000000000000000000000000000000000000000000000000008152600401611fb8906149ec565b60405180910390fd5b611fcd60008383613c9d565b8060026000828254611fdf9190614651565b92505081905550806000808473ffffffffffffffffffffffffffffffffffffffff1673ffffffffffffffffffffffffffffffffffffffff168152602001908152602001600020600082825401925050819055508173ffffffffffffffffffffffffffffffffffffffff16600073ffffffffffffffffffffffffffffffffffffffff167fddf252ad1be2c89b69c2b068fc378daa952ba7f163c4a11628f55a4df523b3ef836040516120909190613fb7565b60405180910390a36120a460008383613ca2565b5050565b60006120b48484611c5b565b90507fffffffffffffffffffffffffffffffffffffffffffffffffffffffffffffffff811461212e5781811015612120576040517f08c379a000000000000000000000000000000000000000000000000000000000815260040161211790614a58565b60405180910390fd5b61212d8484848403611cea565b5b50505050565b600073ffffffffffffffffffffffffffffffffffffffff168373ffffffffffffffffffffffffffffffffffffffff1614156121a4576040517f08c379a000000000000000000000000000000000000000000000000000000000815260040161219b90614aea565b60405180910390fd5b600073ffffffffffffffffffffffffffffffffffffffff168273ffffffffffffffffffffffffffffffffffffffff161415612214576040517f08c379a000000000000000000000000000000000000000000000000000000000815260040161220b90614b7c565b60405180910390fd5b61221f838383613c9d565b60008060008573ffffffffffffffffffffffffffffffffffffffff1673ffffffffffffffffffffffffffffffffffffffff168152602001908152602001600020549050818110156122a5576040517f08c379a000000000000000000000000000000000000000000000000000000000815260040161229c90614c0e565b60405180910390fd5b8181036000808673ffffffffffffffffffffffffffffffffffffffff1673ffffffffffffffffffffffffffffffffffffffff16815260200190815260200160002081905550816000808573ffffffffffffffffffffffffffffffffffffffff1673ffffffffffffffffffffffffffffffffffffffff168152602001908152602001600020600082825401925050819055508273ffffffffffffffffffffffffffffffffffffffff168473ffffffffffffffffffffffffffffffffffffffff167fddf252ad1be2c89b69c2b068fc378daa952ba7f163c4a11628f55a4df523b3ef846040516123939190613fb7565b60405180910390a36123a6848484613ca2565b50505050565b6000806000905060008060006fd3094c70f034de4b96ff7d5b6f99fcd88610612427576f40000000000000000000000000000000846123eb9190614651565b93506fd3094c70f034de4b96ff7d5b6f99fcd86f800000000000000000000000000000008761241a91906143e5565b612424919061446e565b95505b6fa45af1e1f40c333b3de1db4dd55f29a78610612496576f200000000000000000000000000000008461245a9190614651565b93506fa45af1e1f40c333b3de1db4dd55f29a76f800000000000000000000000000000008761248991906143e5565b612493919061446e565b95505b6f910b022db7ae67ce76b441c27035c6a18610612505576f10000000000000000000000000000000846124c99190614651565b93506f910b022db7ae67ce76b441c27035c6a16f80000000000000000000000000000000876124f891906143e5565b612502919061446e565b95505b6f88415abbe9a76bead8d00cf112e4d4a88610612574576f08000000000000000000000000000000846125389190614651565b93506f88415abbe9a76bead8d00cf112e4d4a86f800000000000000000000000000000008761256791906143e5565b612571919061446e565b95505b6f84102b00893f64c705e841d5d4064bd386106125e3576f04000000000000000000000000000000846125a79190614651565b93506f84102b00893f64c705e841d5d4064bd36f80000000000000000000000000000000876125d691906143e5565b6125e0919061446e565b95505b6f8204055aaef1c8bd5c3259f4822735a28610612652576f02000000000000000000000000000000846126169190614651565b93506f8204055aaef1c8bd5c3259f4822735a26f800000000000000000000000000000008761264591906143e5565b61264f919061446e565b95505b6f810100ab00222d861931c15e39b44e9986106126c1576f01000000000000000000000000000000846126859190614651565b93506f810100ab00222d861931c15e39b44e996f80000000000000000000000000000000876126b491906143e5565b6126be919061446e565b95505b6f808040155aabbbe9451521693554f733861061272f576e800000000000000000000000000000846126f39190614651565b93506f808040155aabbbe9451521693554f7336f800000000000000000000000000000008761272291906143e5565b61272c919061446e565b95505b6f800000000000000000000000000000008661274b919061461d565b92508291506f80000000000000000000000000000000838461276d91906143e5565b612777919061446e565b9050700100000000000000000000000000000000837001000000000000000000000000000000006127a8919061461d565b836127b391906143e5565b6127bd919061446e565b846127c89190614651565b93506f8000000000000000000000000000000081836127e791906143e5565b6127f1919061446e565b9150700200000000000000000000000000000000836faaaaaaaaaaaaaaaaaaaaaaaaaaaaaaaa612821919061461d565b8361282c91906143e5565b612836919061446e565b846128419190614651565b93506f80000000000000000000000000000000818361286091906143e5565b61286a919061446e565b9150700300000000000000000000000000000000836f9999999999999999999999999999999961289a919061461d565b836128a591906143e5565b6128af919061446e565b846128ba9190614651565b93506f8000000000000000000000000000000081836128d991906143e5565b6128e3919061446e565b9150700400000000000000000000000000000000836f92492492492492492492492492492492612913919061461d565b8361291e91906143e5565b612928919061446e565b846129339190614651565b93506f80000000000000000000000000000000818361295291906143e5565b61295c919061446e565b9150700500000000000000000000000000000000836f8e38e38e38e38e38e38e38e38e38e38e61298c919061461d565b8361299791906143e5565b6129a1919061446e565b846129ac9190614651565b93506f8000000000000000000000000000000081836129cb91906143e5565b6129d5919061446e565b9150700600000000000000000000000000000000836f8ba2e8ba2e8ba2e8ba2e8ba2e8ba2e8b612a05919061461d565b83612a1091906143e5565b612a1a919061446e565b84612a259190614651565b93506f800000000000000000000000000000008183612a4491906143e5565b612a4e919061446e565b9150700700000000000000000000000000000000836f89d89d89d89d89d89d89d89d89d89d89612a7e919061461d565b83612a8991906143e5565b612a93919061446e565b84612a9e9190614651565b93506f800000000000000000000000000000008183612abd91906143e5565b612ac7919061446e565b9150700800000000000000000000000000000000836f88888888888888888888888888888888612af7919061461d565b83612b0291906143e5565b612b0c919061446e565b84612b179190614651565b935083945050505050919050565b600080600090507001000000000000000000000000000000008310612b98576000612b6a6f8000000000000000000000000000000085612b65919061446e565b613ca7565b90508060ff1684901c93506f800000000000000000000000000000008160ff16612b9491906143e5565b9150505b6f80000000000000000000000000000000831115612c40576000607f90505b60008160ff161115612c3e576f800000000000000000000000000000008485612be091906143e5565b612bea919061446e565b93507001000000000000000000000000000000008410612c2d57600184901c9350600181612c189190614757565b60ff166001901b82612c2a9190614651565b91505b80612c3790614c2e565b9050612bb7565b505b6f05b9de1d10bf4103d647b0955897ba806f03f80fe03f80fe03f80fe03f80fe03f882612c6d91906143e5565b612c77919061446e565b915050919050565b600080600090506000806f1000000000000000000000000000000085612ca59190614c58565b91508190506f800000000000000000000000000000008282612cc791906143e5565b612cd1919061446e565b90506710e1b3be415a000081612ce791906143e5565b83612cf29190614651565b92506f800000000000000000000000000000008282612d1191906143e5565b612d1b919061446e565b90506705a0913f6b1e000081612d3191906143e5565b83612d3c9190614651565b92506f800000000000000000000000000000008282612d5b91906143e5565b612d65919061446e565b9050670168244fdac7800081612d7b91906143e5565b83612d869190614651565b92506f800000000000000000000000000000008282612da591906143e5565b612daf919061446e565b9050664807432bc1800081612dc491906143e5565b83612dcf9190614651565b92506f800000000000000000000000000000008282612dee91906143e5565b612df8919061446e565b9050660c0135dca0400081612e0d91906143e5565b83612e189190614651565b92506f800000000000000000000000000000008282612e3791906143e5565b612e41919061446e565b90506601b707b1cdc00081612e5691906143e5565b83612e619190614651565b92506f800000000000000000000000000000008282612e8091906143e5565b612e8a919061446e565b90506536e0f639b80081612e9e91906143e5565b83612ea99190614651565b92506f800000000000000000000000000000008282612ec891906143e5565b612ed2919061446e565b9050650618fee9f80081612ee691906143e5565b83612ef19190614651565b92506f800000000000000000000000000000008282612f1091906143e5565b612f1a919061446e565b9050649c197dcc0081612f2d91906143e5565b83612f389190614651565b92506f800000000000000000000000000000008282612f5791906143e5565b612f61919061446e565b9050640e30dce40081612f7491906143e5565b83612f7f9190614651565b92506f800000000000000000000000000000008282612f9e91906143e5565b612fa8919061446e565b905064012ebd130081612fbb91906143e5565b83612fc69190614651565b92506f800000000000000000000000000000008282612fe591906143e5565b612fef919061446e565b90506317499f008161300191906143e5565b8361300c9190614651565b92506f80000000000000000000000000000000828261302b91906143e5565b613035919061446e565b90506301a9d4808161304791906143e5565b836130529190614651565b92506f80000000000000000000000000000000828261307191906143e5565b61307b919061446e565b9050621c63808161308c91906143e5565b836130979190614651565b92506f8000000000000000000000000000000082826130b691906143e5565b6130c0919061446e565b90506201c638816130d191906143e5565b836130dc9190614651565b92506f8000000000000000000000000000000082826130fb91906143e5565b613105919061446e565b9050611ab88161311591906143e5565b836131209190614651565b92506f80000000000000000000000000000000828261313f91906143e5565b613149919061446e565b905061017c8161315991906143e5565b836131649190614651565b92506f80000000000000000000000000000000828261318391906143e5565b61318d919061446e565b905060148161319c91906143e5565b836131a79190614651565b92506f8000000000000000000000000000000082826131c691906143e5565b6131d0919061446e565b90506001816131df91906143e5565b836131ea9190614651565b92506f80000000000000000000000000000000826721c3677c82b4000085613212919061446e565b61321c9190614651565b6132269190614651565b925060006f1000000000000000000000000000000086161461327e5770018ebef9eac820ae8682b9793ac6d1e7767001c3d6a24ed82218787d624d3e5eba95f98461327191906143e5565b61327b919061446e565b92505b60006f200000000000000000000000000000008616146132d4577001368b2fc6f9609fe7aceb46aa619baed470018ebef9eac820ae8682b9793ac6d1e778846132c791906143e5565b6132d1919061446e565b92505b60006f40000000000000000000000000000000861614613329576fbc5ab1b16779be3575bd8f0520a9f21f7001368b2fc6f9609fe7aceb46aa619baed58461331c91906143e5565b613326919061446e565b92505b60006f8000000000000000000000000000000086161461337d576f454aaa8efe072e7f6ddbab84b40a55c96fbc5ab1b16779be3575bd8f0520a9f21e8461337091906143e5565b61337a919061446e565b92505b60007001000000000000000000000000000000008616146133d2576f0960aadc109e7a3bf4578099615711ea6f454aaa8efe072e7f6ddbab84b40a55c5846133c591906143e5565b6133cf919061446e565b92505b6000700200000000000000000000000000000000861614613426576e2bf84208204f5977f9a8cf01fdce3d6f0960aadc109e7a3bf4578099615711d78461341991906143e5565b613423919061446e565b92505b6000700400000000000000000000000000000000861614613478576d03c6ab775dd0b95b4cbee7e65d116e2bf84208204f5977f9a8cf01fdc3078461346b91906143e5565b613475919061446e565b92505b829350505050919050565b600080602090506000607f90505b8060ff166001836134a29190614c89565b60ff1610156134f8576000600282846134bb9190614c89565b6134c59190614cc0565b90508460088260ff16608081106134df576134de61478b565b5b0154106134ee578092506134f2565b8091505b50613491565b8360088260ff16608081106135105761350f61478b565b5b015410613521578092505050613560565b8360088360ff16608081106135395761353861478b565b5b01541061354a578192505050613560565b600061355957613558614728565b5b6000925050505b919050565b60008083905060008360ff16858361357d91906143e5565b901c91506f03442c4e6074a82f1797f72ac00000008261359d91906143e5565b816135a89190614651565b90508360ff1685836135ba91906143e5565b901c91506f0116b96f757c380fb287fd0e40000000826135da91906143e5565b816135e59190614651565b90508360ff1685836135f791906143e5565b901c91506e45ae5bdd5f0e03eca1ff43900000008261361691906143e5565b816136219190614651565b90508360ff16858361363391906143e5565b901c91506e0defabf91302cd95b9ffda500000008261365291906143e5565b8161365d9190614651565b90508360ff16858361366f91906143e5565b901c91506e02529ca9832b22439efff9b80000008261368e91906143e5565b816136999190614651565b90508360ff1685836136ab91906143e5565b901c91506d54f1cf12bd04e516b6da88000000826136c991906143e5565b816136d49190614651565b90508360ff1685836136e691906143e5565b901c91506d0a9e39e257a09ca2d6db510000008261370491906143e5565b8161370f9190614651565b90508360ff16858361372191906143e5565b901c91506d012e066e7b839fa050c3090000008261373f91906143e5565b8161374a9190614651565b90508360ff16858361375c91906143e5565b901c91506c1e33d7d926c329a1ad1a8000008261377991906143e5565b816137849190614651565b90508360ff16858361379691906143e5565b901c91506c02bee513bdb4a6b19b5f800000826137b391906143e5565b816137be9190614651565b90508360ff1685836137d091906143e5565b901c91506b3a9316fa79b88eccf2a00000826137ec91906143e5565b816137f79190614651565b90508360ff16858361380991906143e5565b901c91506b048177ebe1fa8123752000008261382591906143e5565b816138309190614651565b90508360ff16858361384291906143e5565b901c91506a5263fe90242dcbacf000008261385d91906143e5565b816138689190614651565b90508360ff16858361387a91906143e5565b901c91506a057e22099c030d941000008261389591906143e5565b816138a09190614651565b90508360ff1685836138b291906143e5565b901c91506957e22099c030d9410000826138cc91906143e5565b816138d79190614651565b90508360ff1685836138e991906143e5565b901c915069052b6b545699763100008261390391906143e5565b8161390e9190614651565b90508360ff16858361392091906143e5565b901c9150684985f67696bf7480008261393991906143e5565b816139449190614651565b90508360ff16858361395691906143e5565b901c91506803dea12ea99e4980008261396f91906143e5565b8161397a9190614651565b90508360ff16858361398c91906143e5565b901c91506731880f2214b6e000826139a491906143e5565b816139af9190614651565b90508360ff1685836139c191906143e5565b901c915067025bcff56eb36000826139d991906143e5565b816139e49190614651565b90508360ff1685836139f691906143e5565b901c9150661b722e10ab100082613a0d91906143e5565b81613a189190614651565b90508360ff168583613a2a91906143e5565b901c91506601317c7007700082613a4191906143e5565b81613a4c9190614651565b90508360ff168583613a5e91906143e5565b901c9150650cba84aafa0082613a7491906143e5565b81613a7f9190614651565b90508360ff168583613a9191906143e5565b901c91506482573a0a0082613aa691906143e5565b81613ab19190614651565b90508360ff168583613ac391906143e5565b901c91506405035ad90082613ad891906143e5565b81613ae39190614651565b90508360ff168583613af591906143e5565b901c9150632f881b0082613b0991906143e5565b81613b149190614651565b90508360ff168583613b2691906143e5565b901c91506301b2934082613b3a91906143e5565b81613b459190614651565b90508360ff168583613b5791906143e5565b901c9150620efc4082613b6a91906143e5565b81613b759190614651565b90508360ff168583613b8791906143e5565b901c9150617fe082613b9991906143e5565b81613ba49190614651565b90508360ff168583613bb691906143e5565b901c915061042082613bc891906143e5565b81613bd39190614651565b90508360ff168583613be591906143e5565b901c9150602182613bf691906143e5565b81613c019190614651565b90508360ff168583613c1391906143e5565b901c9150600182613c2491906143e5565b81613c2f9190614651565b90508360ff166001901b856f0688589cc0e9505e2f2fee558000000083613c56919061446e565b613c609190614651565b613c6a9190614651565b9250505092915050565b60008151905060006a636f6e736f6c652e6c6f679050602083016000808483855afa5050505050565b505050565b505050565b60008060009050610100831015613ce2575b6001831115613cdd57600183901c9250600181613cd69190614c89565b9050613cb9565b613d23565b6000608090505b60008160ff161115613d21578060ff166001901b8410613d12578060ff1684901c935080821791505b60018160ff16901c9050613ce9565b505b80915050919050565b828054613d3890614384565b90600052602060002090601f016020900481019282613d5a5760008555613da1565b82601f10613d7357805160ff1916838001178555613da1565b82800160010185558215613da1579182015b82811115613da0578251825591602001919060010190613d85565b5b509050613dae9190613db2565b5090565b5b80821115613dcb576000816000905550600101613db3565b5090565b600081519050919050565b600082825260208201905092915050565b60005b83811015613e09578082015181840152602081019050613dee565b83811115613e18576000848401525b50505050565b6000601f19601f8301169050919050565b6000613e3a82613dcf565b613e448185613dda565b9350613e54818560208601613deb565b613e5d81613e1e565b840191505092915050565b60006020820190508181036000830152613e828184613e2f565b905092915050565b6000604051905090565b600080fd5b600080fd5b600073ffffffffffffffffffffffffffffffffffffffff82169050919050565b6000613ec982613e9e565b9050919050565b613ed981613ebe565b8114613ee457600080fd5b50565b600081359050613ef681613ed0565b92915050565b6000819050919050565b613f0f81613efc565b8114613f1a57600080fd5b50565b600081359050613f2c81613f06565b92915050565b60008060408385031215613f4957613f48613e94565b5b6000613f5785828601613ee7565b9250506020613f6885828601613f1d565b9150509250929050565b60008115159050919050565b613f8781613f72565b82525050565b6000602082019050613fa26000830184613f7e565b92915050565b613fb181613efc565b82525050565b6000602082019050613fcc6000830184613fa8565b92915050565b600080fd5b600080fd5b7f4e487b7100000000000000000000000000000000000000000000000000000000600052604160045260246000fd5b61401482613e1e565b810181811067ffffffffffffffff8211171561403357614032613fdc565b5b80604052505050565b6000614046613e8a565b9050614052828261400b565b919050565b600067ffffffffffffffff82111561407257614071613fdc565b5b61407b82613e1e565b9050602081019050919050565b82818337600083830152505050565b60006140aa6140a584614057565b61403c565b9050828152602081018484840111156140c6576140c5613fd7565b5b6140d1848285614088565b509392505050565b600082601f8301126140ee576140ed613fd2565b5b81356140fe848260208601614097565b91505092915050565b6000806000606084860312156141205761411f613e94565b5b600084013567ffffffffffffffff81111561413e5761413d613e99565b5b61414a868287016140d9565b935050602084013567ffffffffffffffff81111561416b5761416a613e99565b5b614177868287016140d9565b925050604061418886828701613f1d565b9150509250925092565b6000806000606084860312156141ab576141aa613e94565b5b60006141b986828701613ee7565b93505060206141ca86828701613ee7565b92505060406141db86828701613f1d565b9150509250925092565b6000602082840312156141fb576141fa613e94565b5b600061420984828501613ee7565b91505092915050565b600060ff82169050919050565b61422881614212565b82525050565b6000602082019050614243600083018461421f565b92915050565b600063ffffffff82169050919050565b61426281614249565b811461426d57600080fd5b50565b60008135905061427f81614259565b92915050565b6000806000806080858703121561429f5761429e613e94565b5b60006142ad87828801613f1d565b94505060206142be87828801613f1d565b93505060406142cf87828801614270565b92505060606142e087828801614270565b91505092959194509250565b60006040820190506143016000830185613fa8565b61430e602083018461421f565b9392505050565b6000806040838503121561432c5761432b613e94565b5b600061433a85828601613ee7565b925050602061434b85828601613ee7565b9150509250929050565b7f4e487b7100000000000000000000000000000000000000000000000000000000600052602260045260246000fd5b6000600282049050600182168061439c57607f821691505b602082108114156143b0576143af614355565b5b50919050565b7f4e487b7100000000000000000000000000000000000000000000000000000000600052601160045260246000fd5b60006143f082613efc565b91506143fb83613efc565b9250817fffffffffffffffffffffffffffffffffffffffffffffffffffffffffffffffff0483118215151615614434576144336143b6565b5b828202905092915050565b7f4e487b7100000000000000000000000000000000000000000000000000000000600052601260045260246000fd5b600061447982613efc565b915061448483613efc565b9250826144945761449361443f565b5b828204905092915050565b60008160011c9050919050565b6000808291508390505b60018511156144f6578086048111156144d2576144d16143b6565b5b60018516156144e15780820291505b80810290506144ef8561449f565b94506144b6565b94509492505050565b60008261450f57600190506145cb565b8161451d57600090506145cb565b8160018114614533576002811461453d5761456c565b60019150506145cb565b60ff84111561454f5761454e6143b6565b5b8360020a915084821115614566576145656143b6565b5b506145cb565b5060208310610133831016604e8410600b84101617156145a15782820a90508381111561459c5761459b6143b6565b5b6145cb565b6145ae84848460016144ac565b925090508184048111156145c5576145c46143b6565b5b81810290505b9392505050565b60006145dd82613efc565b91506145e883613efc565b92506146157fffffffffffffffffffffffffffffffffffffffffffffffffffffffffffffffff84846144ff565b905092915050565b600061462882613efc565b915061463383613efc565b925082821015614646576146456143b6565b5b828203905092915050565b600061465c82613efc565b915061466783613efc565b9250827fffffffffffffffffffffffffffffffffffffffffffffffffffffffffffffffff0382111561469c5761469b6143b6565b5b828201905092915050565b60006146b282613efc565b91507fffffffffffffffffffffffffffffffffffffffffffffffffffffffffffffffff8214156146e5576146e46143b6565b5b600182019050919050565b6146f981613ebe565b82525050565b600060408201905061471460008301856146f0565b6147216020830184613fa8565b9392505050565b7f4e487b7100000000000000000000000000000000000000000000000000000000600052600160045260246000fd5b600061476282614212565b915061476d83614212565b9250828210156147805761477f6143b6565b5b828203905092915050565b7f4e487b7100000000000000000000000000000000000000000000000000000000600052603260045260246000fd5b7f45524332303a2064656372656173656420616c6c6f77616e63652062656c6f7760008201527f207a65726f000000000000000000000000000000000000000000000000000000602082015250565b6000614816602583613dda565b9150614821826147ba565b604082019050919050565b6000602082019050818103600083015261484581614809565b9050919050565b7f45524332303a20617070726f76652066726f6d20746865207a65726f2061646460008201527f7265737300000000000000000000000000000000000000000000000000000000602082015250565b60006148a8602483613dda565b91506148b38261484c565b604082019050919050565b600060208201905081810360008301526148d78161489b565b9050919050565b7f45524332303a20617070726f766520746f20746865207a65726f20616464726560008201527f7373000000000000000000000000000000000000000000000000000000000000602082015250565b600061493a602283613dda565b9150614945826148de565b604082019050919050565b600060208201905081810360008301526149698161492d565b9050919050565b6000604082019050818103600083015261498a8185613e2f565b90506149996020830184613fa8565b9392505050565b7f45524332303a206d696e7420746f20746865207a65726f206164647265737300600082015250565b60006149d6601f83613dda565b91506149e1826149a0565b602082019050919050565b60006020820190508181036000830152614a05816149c9565b9050919050565b7f45524332303a20696e73756666696369656e7420616c6c6f77616e6365000000600082015250565b6000614a42601d83613dda565b9150614a4d82614a0c565b602082019050919050565b60006020820190508181036000830152614a7181614a35565b9050919050565b7f45524332303a207472616e736665722066726f6d20746865207a65726f20616460008201527f6472657373000000000000000000000000000000000000000000000000000000602082015250565b6000614ad4602583613dda565b9150614adf82614a78565b604082019050919050565b60006020820190508181036000830152614b0381614ac7565b9050919050565b7f45524332303a207472616e7366657220746f20746865207a65726f206164647260008201527f6573730000000000000000000000000000000000000000000000000000000000602082015250565b6000614b66602383613dda565b9150614b7182614b0a565b604082019050919050565b60006020820190508181036000830152614b9581614b59565b9050919050565b7f45524332303a207472616e7366657220616d6f756e742065786365656473206260008201527f616c616e63650000000000000000000000000000000000000000000000000000602082015250565b6000614bf8602683613dda565b9150614c0382614b9c565b604082019050919050565b60006020820190508181036000830152614c2781614beb565b9050919050565b6000614c3982614212565b91506000821415614c4d57614c4c6143b6565b5b600182039050919050565b6000614c6382613efc565b9150614c6e83613efc565b925082614c7e57614c7d61443f565b5b828206905092915050565b6000614c9482614212565b9150614c9f83614212565b92508260ff03821115614cb557614cb46143b6565b5b828201905092915050565b6000614ccb82614212565b9150614cd683614212565b925082614ce657614ce561443f565b5b82820490509291505056fea2646970667358221220d3bf786c6e9789b62bef25d92eb55cb306ed8537e0f2beaebcb4c296cc97a4f164736f6c634300080a0033",
  "linkReferences": {},
  "deployedLinkReferences": {}
}