{
  "_format": "hh-sol-artifact-1",
  "contractName": "VCCToken",
  "sourceName": "contracts/CarbonCredit.sol",
  "abi": [
    {
      "inputs": [],
      "stateMutability": "nonpayable",
      "type": "constructor"
    },
    {
      "anonymous": false,
      "inputs": [
        {
          "indexed": true,
          "internalType": "address",
          "name": "owner",
          "type": "address"
        },
        {
          "indexed": true,
          "internalType": "address",
          "name": "spender",
          "type": "address"
        },
        {
          "indexed": false,
          "internalType": "uint256",
          "name": "value",
          "type": "uint256"
        }
      ],
      "name": "Approval",
      "type": "event"
    },
    {
      "anonymous": false,
      "inputs": [
        {
          "indexed": true,
          "internalType": "address",
          "name": "from",
          "type": "address"
        },
        {
          "indexed": true,
          "internalType": "address",
          "name": "to",
          "type": "address"
        },
        {
          "indexed": false,
          "internalType": "uint256",
          "name": "value",
          "type": "uint256"
        }
      ],
      "name": "Transfer",
      "type": "event"
    },
    {
      "anonymous": false,
      "inputs": [
        {
          "indexed": false,
          "internalType": "address",
          "name": "beneficiary",
          "type": "address"
        },
        {
          "indexed": false,
          "internalType": "uint256",
          "name": "amount",
          "type": "uint256"
        }
      ],
      "name": "Verified",
      "type": "event"
    },
    {
      "inputs": [],
      "name": "BancorFormula",
      "outputs": [],
      "stateMutability": "nonpayable",
      "type": "function"
    },
    {
      "inputs": [
        {
          "internalType": "address",
          "name": "owner",
          "type": "address"
        },
        {
          "internalType": "address",
          "name": "spender",
          "type": "address"
        }
      ],
      "name": "allowance",
      "outputs": [
        {
          "internalType": "uint256",
          "name": "",
          "type": "uint256"
        }
      ],
      "stateMutability": "view",
      "type": "function"
    },
    {
      "inputs": [
        {
          "internalType": "address",
          "name": "spender",
          "type": "address"
        },
        {
          "internalType": "uint256",
          "name": "amount",
          "type": "uint256"
        }
      ],
      "name": "approve",
      "outputs": [
        {
          "internalType": "bool",
          "name": "",
          "type": "bool"
        }
      ],
      "stateMutability": "nonpayable",
      "type": "function"
    },
    {
      "inputs": [
        {
          "internalType": "address",
          "name": "account",
          "type": "address"
        }
      ],
      "name": "balanceOf",
      "outputs": [
        {
          "internalType": "uint256",
          "name": "",
          "type": "uint256"
        }
      ],
      "stateMutability": "view",
      "type": "function"
    },
    {
      "inputs": [],
      "name": "decimals",
      "outputs": [
        {
          "internalType": "uint8",
          "name": "",
          "type": "uint8"
        }
      ],
      "stateMutability": "view",
      "type": "function"
    },
    {
      "inputs": [
        {
          "internalType": "address",
          "name": "spender",
          "type": "address"
        },
        {
          "internalType": "uint256",
          "name": "subtractedValue",
          "type": "uint256"
        }
      ],
      "name": "decreaseAllowance",
      "outputs": [
        {
          "internalType": "bool",
          "name": "",
          "type": "bool"
        }
      ],
      "stateMutability": "nonpayable",
      "type": "function"
    },
    {
      "inputs": [
        {
          "internalType": "address",
          "name": "spender",
          "type": "address"
        },
        {
          "internalType": "uint256",
          "name": "addedValue",
          "type": "uint256"
        }
      ],
      "name": "increaseAllowance",
      "outputs": [
        {
          "internalType": "bool",
          "name": "",
          "type": "bool"
        }
      ],
      "stateMutability": "nonpayable",
      "type": "function"
    },
    {
      "inputs": [],
      "name": "isTradeable",
      "outputs": [
        {
          "internalType": "bool",
          "name": "",
          "type": "bool"
        }
      ],
      "stateMutability": "nonpayable",
      "type": "function"
    },
    {
      "inputs": [
        {
          "internalType": "address",
          "name": "",
          "type": "address"
        }
      ],
      "name": "lock",
      "outputs": [
        {
          "internalType": "bool",
          "name": "",
          "type": "bool"
        }
      ],
      "stateMutability": "view",
      "type": "function"
    },
    {
      "inputs": [],
      "name": "lockStatus",
      "outputs": [
        {
          "internalType": "bool",
          "name": "",
          "type": "bool"
        }
      ],
      "stateMutability": "nonpayable",
      "type": "function"
    },
    {
      "inputs": [
        {
          "internalType": "address",
          "name": "",
          "type": "address"
        }
      ],
      "name": "metadata",
      "outputs": [
        {
          "internalType": "string",
          "name": "",
          "type": "string"
        }
      ],
      "stateMutability": "view",
      "type": "function"
    },
    {
      "inputs": [],
      "name": "name",
      "outputs": [
        {
          "internalType": "string",
          "name": "",
          "type": "string"
        }
      ],
      "stateMutability": "view",
      "type": "function"
    },
    {
      "inputs": [
        {
          "internalType": "uint256",
          "name": "_baseN",
          "type": "uint256"
        },
        {
          "internalType": "uint256",
          "name": "_baseD",
          "type": "uint256"
        },
        {
          "internalType": "uint32",
          "name": "_expN",
          "type": "uint32"
        },
        {
          "internalType": "uint32",
          "name": "_expD",
          "type": "uint32"
        }
      ],
      "name": "power",
      "outputs": [
        {
          "internalType": "uint256",
          "name": "",
          "type": "uint256"
        },
        {
          "internalType": "uint8",
          "name": "",
          "type": "uint8"
        }
      ],
      "stateMutability": "view",
      "type": "function"
    },
    {
      "inputs": [
        {
          "internalType": "address",
          "name": "",
          "type": "address"
        }
      ],
      "name": "projectDesignDocument",
      "outputs": [
        {
          "internalType": "string",
          "name": "",
          "type": "string"
        }
      ],
      "stateMutability": "view",
      "type": "function"
    },
    {
      "inputs": [
        {
          "internalType": "address",
          "name": "",
          "type": "address"
        }
      ],
      "name": "projectMonitoringReport",
      "outputs": [
        {
          "internalType": "string",
          "name": "",
          "type": "string"
        }
      ],
      "stateMutability": "view",
      "type": "function"
    },
    {
      "inputs": [],
      "name": "retire",
      "outputs": [],
      "stateMutability": "nonpayable",
      "type": "function"
    },
    {
      "inputs": [
        {
          "internalType": "address",
          "name": "",
          "type": "address"
        }
      ],
      "name": "retired",
      "outputs": [
        {
          "internalType": "bool",
          "name": "",
          "type": "bool"
        }
      ],
      "stateMutability": "view",
      "type": "function"
    },
    {
      "inputs": [],
      "name": "symbol",
      "outputs": [
        {
          "internalType": "string",
          "name": "",
          "type": "string"
        }
      ],
      "stateMutability": "view",
      "type": "function"
    },
    {
      "inputs": [],
      "name": "totalSupply",
      "outputs": [
        {
          "internalType": "uint256",
          "name": "",
          "type": "uint256"
        }
      ],
      "stateMutability": "view",
      "type": "function"
    },
    {
      "inputs": [
        {
          "internalType": "address",
          "name": "to",
          "type": "address"
        },
        {
          "internalType": "uint256",
          "name": "amount",
          "type": "uint256"
        }
      ],
      "name": "transfer",
      "outputs": [
        {
          "internalType": "bool",
          "name": "",
          "type": "bool"
        }
      ],
      "stateMutability": "nonpayable",
      "type": "function"
    },
    {
      "inputs": [
        {
          "internalType": "address",
          "name": "from",
          "type": "address"
        },
        {
          "internalType": "address",
          "name": "to",
          "type": "address"
        },
        {
          "internalType": "uint256",
          "name": "amount",
          "type": "uint256"
        }
      ],
      "name": "transferFrom",
      "outputs": [
        {
          "internalType": "bool",
          "name": "",
          "type": "bool"
        }
      ],
      "stateMutability": "nonpayable",
      "type": "function"
    },
    {
      "inputs": [
        {
          "internalType": "string",
          "name": "_projectMonitoringReport",
          "type": "string"
        }
      ],
      "name": "unlock",
      "outputs": [],
      "stateMutability": "nonpayable",
      "type": "function"
    },
    {
      "inputs": [
        {
          "internalType": "string",
          "name": "_metadata",
          "type": "string"
        },
        {
          "internalType": "string",
          "name": "_projectDesignDocument",
          "type": "string"
        },
        {
          "internalType": "uint256",
          "name": "_treeDBH",
          "type": "uint256"
        }
      ],
      "name": "verify",
      "outputs": [],
      "stateMutability": "nonpayable",
      "type": "function"
    }
  ],
  "bytecode": "0x60806040523480156200001157600080fd5b506040518060400160405280601881526020017f56657269666961626c6520436172626f6e2043726564697400000000000000008152506040518060400160405280600381526020017f5643430000000000000000000000000000000000000000000000000000000000815250816003908051906020019062000096929190620000b8565b508060049080519060200190620000af929190620000b8565b505050620001cd565b828054620000c69062000197565b90600052602060002090601f016020900481019282620000ea576000855562000136565b82601f106200010557805160ff191683800117855562000136565b8280016001018555821562000136579182015b828111156200013557825182559160200191906001019062000118565b5b50905062000145919062000149565b5090565b5b80821115620001645760008160009055506001016200014a565b5090565b7f4e487b7100000000000000000000000000000000000000000000000000000000600052602260045260246000fd5b60006002820490506001821680620001b057607f821691505b60208210811415620001c757620001c662000168565b5b50919050565b6152e080620001dd6000396000f3fe608060405234801561001057600080fd5b506004361061014d5760003560e01c80633e89340f116100c3578063a4874d771161007c578063a4874d77146103dd578063a9059cbb146103e7578063a96ce7aa14610417578063b04a795014610433578063dd62ed3e14610463578063f435f5a7146104935761014d565b80633e89340f146103075780634339868514610325578063633bcaed1461032f57806370a082311461035f57806395d89b411461038f578063a457c2d7146103ad5761014d565b806323b872dd1161011557806323b872dd146101f85780632ba2157214610228578063313ce5671461025857806332833d511461027657806332d43bc2146102a757806339509351146102d75761014d565b806306fdde0314610152578063095ea7b31461017057806318160ddd146101a05780631b4c84d2146101be578063206e33e9146101dc575b600080fd5b61015a6104c3565b60405161016791906142cf565b60405180910390f35b61018a60048036038101906101859190614399565b610555565b60405161019791906143f4565b60405180910390f35b6101a8610578565b6040516101b5919061441e565b60405180910390f35b6101c6610582565b6040516101d391906143f4565b60405180910390f35b6101f660048036038101906101f1919061456e565b6105d7565b005b610212600480360381019061020d91906145f9565b610a5a565b60405161021f91906143f4565b60405180910390f35b610242600480360381019061023d919061464c565b610a89565b60405161024f91906142cf565b60405180910390f35b610260610b29565b60405161026d9190614695565b60405180910390f35b610290600480360381019061028b91906146ec565b610b32565b60405161029e929190614753565b60405180910390f35b6102c160048036038101906102bc919061464c565b610c4a565b6040516102ce91906143f4565b60405180910390f35b6102f160048036038101906102ec9190614399565b610c6a565b6040516102fe91906143f4565b60405180910390f35b61030f610ca1565b60405161031c91906143f4565b60405180910390f35b61032d610ca6565b005b6103496004803603810190610344919061464c565b611d18565b60405161035691906142cf565b60405180910390f35b6103796004803603810190610374919061464c565b611db8565b604051610386919061441e565b60405180910390f35b610397611e00565b6040516103a491906142cf565b60405180910390f35b6103c760048036038101906103c29190614399565b611e92565b6040516103d491906143f4565b60405180910390f35b6103e5611f09565b005b61040160048036038101906103fc9190614399565b611f63565b60405161040e91906143f4565b60405180910390f35b610431600480360381019061042c919061477c565b611f86565b005b61044d6004803603810190610448919061464c565b6120c7565b60405161045a91906142cf565b60405180910390f35b61047d600480360381019061047891906147c5565b612167565b60405161048a919061441e565b60405180910390f35b6104ad60048036038101906104a8919061464c565b6121ee565b6040516104ba91906143f4565b60405180910390f35b6060600380546104d290614834565b80601f01602080910402602001604051908101604052809291908181526020018280546104fe90614834565b801561054b5780601f106105205761010080835404028352916020019161054b565b820191906000526020600020905b81548152906001019060200180831161052e57829003601f168201915b5050505050905090565b60008061056061220e565b905061056d818585612216565b600191505092915050565b6000600254905090565b6000600960003373ffffffffffffffffffffffffffffffffffffffff1673ffffffffffffffffffffffffffffffffffffffff16815260200190815260200160002060009054906101000a900460ff1615905090565b6000805b60558111610736576000806105f7856001616365612710610b32565b60ff16915091506127106103e68361060f9190614895565b610619919061491e565b915060008061064683600261062e9190614a82565b85610639919061491e565b60016102fb6103e8610b32565b60ff16915091506103e860d08361065d9190614895565b610667919061491e565b91506000620425d490506000620186a090506000605588605561068a9190614acd565b866106959190614895565b61069f919061491e565b905060006064607c836106b29190614895565b6106bc919061491e565b905060006064602f836106cf9190614895565b6106d9919061491e565b90508560026106e89190614a82565b612710618f3a836106f99190614895565b610703919061491e565b61070d919061491e565b8b6107189190614b01565b9a50505050505050505050808061072e90614b57565b9150506105db565b506000600960003373ffffffffffffffffffffffffffffffffffffffff1673ffffffffffffffffffffffffffffffffffffffff16815260200190815260200160002060006101000a81548160ff02191690831515021790555060405160200161079e90614bd1565b60405160208183030381529060405280519060200120600560003373ffffffffffffffffffffffffffffffffffffffff1673ffffffffffffffffffffffffffffffffffffffff1681526020019081526020016000206040516020016108039190614c7a565b604051602081830303815290604052805190602001201415806108ae575060405160200161083090614bd1565b60405160208183030381529060405280519060200120600660003373ffffffffffffffffffffffffffffffffffffffff1673ffffffffffffffffffffffffffffffffffffffff1681526020019081526020016000206040516020016108959190614c7a565b6040516020818303038152906040528051906020012014155b15610910576000600860003373ffffffffffffffffffffffffffffffffffffffff1673ffffffffffffffffffffffffffffffffffffffff16815260200190815260200160002060006101000a81548160ff021916908315150217905550610969565b6001600860003373ffffffffffffffffffffffffffffffffffffffff1673ffffffffffffffffffffffffffffffffffffffff16815260200190815260200160002060006101000a81548160ff0219169083151502179055505b61097333826123e1565b83600560003373ffffffffffffffffffffffffffffffffffffffff1673ffffffffffffffffffffffffffffffffffffffff16815260200190815260200160002090805190602001906109c6929190614193565b5082600660003373ffffffffffffffffffffffffffffffffffffffff1673ffffffffffffffffffffffffffffffffffffffff1681526020019081526020016000209080519060200190610a1a929190614193565b507f7c4bd613345b3aec2140d4c4c96782cda06d72b1a593fbb20a72300354f4c3363382604051610a4c929190614ca0565b60405180910390a150505050565b600080610a6561220e565b9050610a72858285612538565b610a7d8585856125c4565b60019150509392505050565b60056020528060005260406000206000915090508054610aa890614834565b80601f0160208091040260200160405190810160405280929190818152602001828054610ad490614834565b8015610b215780601f10610af657610100808354040283529160200191610b21565b820191906000526020600020905b815481529060010190602001808311610b0457829003601f168201915b505050505081565b60006012905090565b6000807002000000000000000000000000000000008610610b5657610b55614cc9565b5b600080866f8000000000000000000000000000000089610b769190614895565b610b80919061491e565b905070015bf0a8b1457695355fb8ac404e7a79e3811015610bab57610ba48161283c565b9150610bb7565b610bb481612fb5565b91505b60008563ffffffff168763ffffffff1684610bd29190614895565b610bdc919061491e565b9050700800000000000000000000000000000000811015610c0e57610c008161310f565b607f94509450505050610c41565b6000610c1982613913565b9050610c3781607f610c2b9190614cf8565b60ff1683901c826139f5565b8195509550505050505b94509492505050565b60096020528060005260406000206000915054906101000a900460ff1681565b600080610c7561220e565b9050610c96818585610c878589612167565b610c919190614b01565b612216565b600191505092915050565b600090565b701c35fedd14ffffffffffffffffffffffff600a602060808110610ccd57610ccc614d2c565b5b0181905550701b0ce43b323fffffffffffffffffffffff600a602160808110610cf957610cf8614d2c565b5b01819055507019f0028ec1ffffffffffffffffffffffff600a602260808110610d2557610d24614d2c565b5b01819055507018ded91f0e7fffffffffffffffffffffff600a602360808110610d5157610d50614d2c565b5b01819055507017d8ec7f0417ffffffffffffffffffffff600a602460808110610d7d57610d7c614d2c565b5b01819055507016ddc6556cdbffffffffffffffffffffff600a602560808110610da957610da8614d2c565b5b01819055507015ecf52776a1ffffffffffffffffffffff600a602660808110610dd557610dd4614d2c565b5b01819055507015060c256cb2ffffffffffffffffffffff600a602760808110610e0157610e00614d2c565b5b0181905550701428a2f98d72ffffffffffffffffffffff600a602860808110610e2d57610e2c614d2c565b5b01819055507013545598e5c23fffffffffffffffffffff600a602960808110610e5957610e58614d2c565b5b0181905550701288c4161ce1dfffffffffffffffffffff600a602a60808110610e8557610e84614d2c565b5b01819055507011c592761c666fffffffffffffffffffff600a602b60808110610eb157610eb0614d2c565b5b018190555070110a688680a757ffffffffffffffffffff600a602c60808110610edd57610edc614d2c565b5b0181905550701056f1b5bedf77ffffffffffffffffffff600a602d60808110610f0957610f08614d2c565b5b0181905550700faadceceeff8bffffffffffffffffffff600a602e60808110610f3557610f34614d2c565b5b0181905550700f05dc6b27edadffffffffffffffffffff600a602f60808110610f6157610f60614d2c565b5b0181905550700e67a5a25da4107fffffffffffffffffff600a603060808110610f8d57610f8c614d2c565b5b0181905550700dcff115b14eedffffffffffffffffffff600a603160808110610fb957610fb8614d2c565b5b0181905550700d3e7a392431239fffffffffffffffffff600a603260808110610fe557610fe4614d2c565b5b0181905550700cb2ff529eb71e4fffffffffffffffffff600a60336080811061101157611010614d2c565b5b0181905550700c2d415c3db974afffffffffffffffffff600a60346080811061103d5761103c614d2c565b5b0181905550700bad03e7d883f69bffffffffffffffffff600a60356080811061106957611068614d2c565b5b0181905550700b320d03b2c343d5ffffffffffffffffff600a60366080811061109557611094614d2c565b5b0181905550700abc25204e02828dffffffffffffffffff600a6037608081106110c1576110c0614d2c565b5b0181905550700a4b16f74ee4bb207fffffffffffffffff600a6038608081106110ed576110ec614d2c565b5b01819055507009deaf736ac1f569ffffffffffffffffff600a60396080811061111957611118614d2c565b5b0181905550700976bd9952c7aa957fffffffffffffffff600a603a6080811061114557611144614d2c565b5b01819055507009131271922eaa606fffffffffffffffff600a603b6080811061117157611170614d2c565b5b01819055507008b380f3558668c46fffffffffffffffff600a603c6080811061119d5761119c614d2c565b5b0181905550700857ddf0117efa215bffffffffffffffff600a603d608081106111c9576111c8614d2c565b5b01819055507007ffffffffffffffffffffffffffffffff600a603e608081106111f5576111f4614d2c565b5b01819055507007abbf6f6abb9d087fffffffffffffffff600a603f6080811061122157611220614d2c565b5b018190555070075af62cbac95f7dfa7fffffffffffffff600a60406080811061124d5761124c614d2c565b5b018190555070070d7fb7452e187ac13fffffffffffffff600a60416080811061127957611278614d2c565b5b01819055507006c3390ecc8af379295fffffffffffffff600a6042608081106112a5576112a4614d2c565b5b018190555070067c00a3b07ffc01fd6fffffffffffffff600a6043608081106112d1576112d0614d2c565b5b0181905550700637b647c39cbb9d3d27ffffffffffffff600a6044608081106112fd576112fc614d2c565b5b01819055507005f63b1fc104dbd39587ffffffffffffff600a60456080811061132957611328614d2c565b5b01819055507005b771955b36e12f7235ffffffffffffff600a60466080811061135557611354614d2c565b5b018190555070057b3d49dda84556d6f6ffffffffffffff600a60476080811061138157611380614d2c565b5b018190555070054183095b2c8ececf30ffffffffffffff600a6048608081106113ad576113ac614d2c565b5b018190555070050a28be635ca2b888f77fffffffffffff600a6049608081106113d9576113d8614d2c565b5b01819055507004d5156639708c9db33c3fffffffffffff600a604a6080811061140557611404614d2c565b5b01819055507004a23105873875bd52dfdfffffffffffff600a604b6080811061143157611430614d2c565b5b0181905550700471649d87199aa990756fffffffffffff600a604c6080811061145d5761145c614d2c565b5b01819055507004429a21a029d4c1457cfbffffffffffff600a604d6080811061148957611488614d2c565b5b0181905550700415bc6d6fb7dd71af2cb3ffffffffffff600a604e608081106114b5576114b4614d2c565b5b01819055507003eab73b3bbfe282243ce1ffffffffffff600a604f608081106114e1576114e0614d2c565b5b01819055507003c1771ac9fb6b4c18e229ffffffffffff600a60506080811061150d5761150c614d2c565b5b0181905550700399e96897690418f785257fffffffffff600a60516080811061153957611538614d2c565b5b0181905550700373fc456c53bb779bf0ea9fffffffffff600a60526080811061156557611564614d2c565b5b018190555070034f9e8e490c48e67e6ab8bfffffffffff600a60536080811061159157611590614d2c565b5b018190555070032cbfd4a7adc790560b3337ffffffffff600a6054608081106115bd576115bc614d2c565b5b018190555070030b50570f6e5d2acca94613ffffffffff600a6055608081106115e9576115e8614d2c565b5b01819055507002eb40f9f620fda6b56c2861ffffffffff600a60566080811061161557611614614d2c565b5b01819055507002cc8340ecb0d0f520a6af58ffffffffff600a60576080811061164157611640614d2c565b5b01819055507002af09481380a0a35cf1ba02ffffffffff600a60586080811061166d5761166c614d2c565b5b0181905550700292c5bdd3b92ec810287b1b3fffffffff600a60596080811061169957611698614d2c565b5b0181905550700277abdcdab07d5a77ac6d6b9fffffffff600a605a608081106116c5576116c4614d2c565b5b018190555070025daf6654b1eaa55fd64df5efffffffff600a605b608081106116f1576116f0614d2c565b5b0181905550700244c49c648baa98192dce88b7ffffffff600a605c6080811061171d5761171c614d2c565b5b018190555070022ce03cd5619a311b2471268bffffffff600a605d6080811061174957611748614d2c565b5b0181905550700215f77c045fbe885654a44a0fffffffff600a605e6080811061177557611774614d2c565b5b01819055507001ffffffffffffffffffffffffffffffff600a605f608081106117a1576117a0614d2c565b5b01819055507001eaefdbdaaee7421fc4d3ede5ffffffff600a6060608081106117cd576117cc614d2c565b5b01819055507001d6bd8b2eb257df7e8ca57b09bfffffff600a6061608081106117f9576117f8614d2c565b5b01819055507001c35fedd14b861eb0443f7f133fffffff600a60626080811061182557611824614d2c565b5b01819055507001b0ce43b322bcde4a56e8ada5afffffff600a60636080811061185157611850614d2c565b5b018190555070019f0028ec1fff007f5a195a39dfffffff600a60646080811061187d5761187c614d2c565b5b018190555070018ded91f0e72ee74f49b15ba527ffffff600a6065608081106118a9576118a8614d2c565b5b018190555070017d8ec7f04136f4e5615fd41a63ffffff600a6066608081106118d5576118d4614d2c565b5b018190555070016ddc6556cdb84bdc8d12d22e6fffffff600a60676080811061190157611900614d2c565b5b018190555070015ecf52776a1155b5bd8395814f7fffff600a60686080811061192d5761192c614d2c565b5b018190555070015060c256cb23b3b3cc3754cf40ffffff600a60696080811061195957611958614d2c565b5b01819055507001428a2f98d728ae223ddab715be3fffff600a606a6080811061198557611984614d2c565b5b018190555070013545598e5c23276ccf0ede68034fffff600a606b608081106119b1576119b0614d2c565b5b01819055507001288c4161ce1d6f54b7f61081194fffff600a606c608081106119dd576119dc614d2c565b5b018190555070011c592761c666aa641d5a01a40f17ffff600a606d60808110611a0957611a08614d2c565b5b0181905550700110a688680a7530515f3e6e6cfdcdffff600a606e60808110611a3557611a34614d2c565b5b01819055507001056f1b5bedf75c6bcb2ce8aed428ffff600a606f60808110611a6157611a60614d2c565b5b01819055506ffaadceceeff8a0890f3875f008277fff600a607060808110611a8c57611a8b614d2c565b5b01819055506ff05dc6b27edad306388a600f6ba0bfff600a607160808110611ab757611ab6614d2c565b5b01819055506fe67a5a25da41063de1495d5b18cdbfff600a607260808110611ae257611ae1614d2c565b5b01819055506fdcff115b14eedde6fc3aa5353f2e4fff600a607360808110611b0d57611b0c614d2c565b5b01819055506fd3e7a3924312399f9aae2e0f868f8fff600a607460808110611b3857611b37614d2c565b5b01819055506fcb2ff529eb71e41582cccd5a1ee26fff600a607560808110611b6357611b62614d2c565b5b01819055506fc2d415c3db974ab32a51840c0b67edff600a607660808110611b8e57611b8d614d2c565b5b01819055506fbad03e7d883f69ad5b0a186184e06bff600a607760808110611bb957611bb8614d2c565b5b01819055506fb320d03b2c343d4829abd6075f0cc5ff600a607860808110611be457611be3614d2c565b5b01819055506fabc25204e02828d73c6e80bcdb1a95bf600a607960808110611c0f57611c0e614d2c565b5b01819055506fa4b16f74ee4bb2040a1ec6c15fbbf2df600a607a60808110611c3a57611c39614d2c565b5b01819055506f9deaf736ac1f569deb1b5ae3f36c130f600a607b60808110611c6557611c64614d2c565b5b01819055506f976bd9952c7aa957f5937d790ef65037600a607c60808110611c9057611c8f614d2c565b5b01819055506f9131271922eaa6064b73a22d0bd4f2bf600a607d60808110611cbb57611cba614d2c565b5b01819055506f8b380f3558668c46c91c49a2f8e967b9600a607e60808110611ce657611ce5614d2c565b5b01819055506f857ddf0117efa215952912839f6473e6600a607f60808110611d1157611d10614d2c565b5b0181905550565b60076020528060005260406000206000915090508054611d3790614834565b80601f0160208091040260200160405190810160405280929190818152602001828054611d6390614834565b8015611db05780601f10611d8557610100808354040283529160200191611db0565b820191906000526020600020905b815481529060010190602001808311611d9357829003601f168201915b505050505081565b60008060008373ffffffffffffffffffffffffffffffffffffffff1673ffffffffffffffffffffffffffffffffffffffff168152602001908152602001600020549050919050565b606060048054611e0f90614834565b80601f0160208091040260200160405190810160405280929190818152602001828054611e3b90614834565b8015611e885780601f10611e5d57610100808354040283529160200191611e88565b820191906000526020600020905b815481529060010190602001808311611e6b57829003601f168201915b5050505050905090565b600080611e9d61220e565b90506000611eab8286612167565b905083811015611ef0576040517f08c379a0000000000000000000000000000000000000000000000000000000008152600401611ee790614dcd565b60405180910390fd5b611efd8286868403612216565b60019250505092915050565b6001600960003373ffffffffffffffffffffffffffffffffffffffff1673ffffffffffffffffffffffffffffffffffffffff16815260200190815260200160002060006101000a81548160ff021916908315150217905550565b600080611f6e61220e565b9050611f7b8185856125c4565b600191505092915050565b6000600860003373ffffffffffffffffffffffffffffffffffffffff1673ffffffffffffffffffffffffffffffffffffffff16815260200190815260200160002060006101000a81548160ff02191690831515021790555080604051602001611fef9190614e1e565b60405160208183030381529060405280519060200120600760003373ffffffffffffffffffffffffffffffffffffffff1673ffffffffffffffffffffffffffffffffffffffff1681526020019081526020016000206040516020016120549190614c7a565b60405160208183030381529060405280519060200120146120c45780600760003373ffffffffffffffffffffffffffffffffffffffff1673ffffffffffffffffffffffffffffffffffffffff16815260200190815260200160002090805190602001906120c2929190614193565b505b50565b600660205280600052604060002060009150905080546120e690614834565b80601f016020809104026020016040519081016040528092919081815260200182805461211290614834565b801561215f5780601f106121345761010080835404028352916020019161215f565b820191906000526020600020905b81548152906001019060200180831161214257829003601f168201915b505050505081565b6000600160008473ffffffffffffffffffffffffffffffffffffffff1673ffffffffffffffffffffffffffffffffffffffff16815260200190815260200160002060008373ffffffffffffffffffffffffffffffffffffffff1673ffffffffffffffffffffffffffffffffffffffff16815260200190815260200160002054905092915050565b60086020528060005260406000206000915054906101000a900460ff1681565b600033905090565b600073ffffffffffffffffffffffffffffffffffffffff168373ffffffffffffffffffffffffffffffffffffffff161415612286576040517f08c379a000000000000000000000000000000000000000000000000000000000815260040161227d90614ea7565b60405180910390fd5b600073ffffffffffffffffffffffffffffffffffffffff168273ffffffffffffffffffffffffffffffffffffffff1614156122f6576040517f08c379a00000000000000000000000000000000000000000000000000000000081526004016122ed90614f39565b60405180910390fd5b80600160008573ffffffffffffffffffffffffffffffffffffffff1673ffffffffffffffffffffffffffffffffffffffff16815260200190815260200160002060008473ffffffffffffffffffffffffffffffffffffffff1673ffffffffffffffffffffffffffffffffffffffff168152602001908152602001600020819055508173ffffffffffffffffffffffffffffffffffffffff168373ffffffffffffffffffffffffffffffffffffffff167f8c5be1e5ebec7d5bd14f71427d1e84f3dd0314c0f7b2291e5b200ac8c7c3b925836040516123d4919061441e565b60405180910390a3505050565b600073ffffffffffffffffffffffffffffffffffffffff168273ffffffffffffffffffffffffffffffffffffffff161415612451576040517f08c379a000000000000000000000000000000000000000000000000000000000815260040161244890614fa5565b60405180910390fd5b61245d60008383614104565b806002600082825461246f9190614b01565b92505081905550806000808473ffffffffffffffffffffffffffffffffffffffff1673ffffffffffffffffffffffffffffffffffffffff168152602001908152602001600020600082825401925050819055508173ffffffffffffffffffffffffffffffffffffffff16600073ffffffffffffffffffffffffffffffffffffffff167fddf252ad1be2c89b69c2b068fc378daa952ba7f163c4a11628f55a4df523b3ef83604051612520919061441e565b60405180910390a361253460008383614109565b5050565b60006125448484612167565b90507fffffffffffffffffffffffffffffffffffffffffffffffffffffffffffffffff81146125be57818110156125b0576040517f08c379a00000000000000000000000000000000000000000000000000000000081526004016125a790615011565b60405180910390fd5b6125bd8484848403612216565b5b50505050565b600073ffffffffffffffffffffffffffffffffffffffff168373ffffffffffffffffffffffffffffffffffffffff161415612634576040517f08c379a000000000000000000000000000000000000000000000000000000000815260040161262b906150a3565b60405180910390fd5b600073ffffffffffffffffffffffffffffffffffffffff168273ffffffffffffffffffffffffffffffffffffffff1614156126a4576040517f08c379a000000000000000000000000000000000000000000000000000000000815260040161269b90615135565b60405180910390fd5b6126af838383614104565b60008060008573ffffffffffffffffffffffffffffffffffffffff1673ffffffffffffffffffffffffffffffffffffffff16815260200190815260200160002054905081811015612735576040517f08c379a000000000000000000000000000000000000000000000000000000000815260040161272c906151c7565b60405180910390fd5b8181036000808673ffffffffffffffffffffffffffffffffffffffff1673ffffffffffffffffffffffffffffffffffffffff16815260200190815260200160002081905550816000808573ffffffffffffffffffffffffffffffffffffffff1673ffffffffffffffffffffffffffffffffffffffff168152602001908152602001600020600082825401925050819055508273ffffffffffffffffffffffffffffffffffffffff168473ffffffffffffffffffffffffffffffffffffffff167fddf252ad1be2c89b69c2b068fc378daa952ba7f163c4a11628f55a4df523b3ef84604051612823919061441e565b60405180910390a3612836848484614109565b50505050565b6000806000905060008060006fd3094c70f034de4b96ff7d5b6f99fcd886106128b7576f400000000000000000000000000000008461287b9190614b01565b93506fd3094c70f034de4b96ff7d5b6f99fcd86f80000000000000000000000000000000876128aa9190614895565b6128b4919061491e565b95505b6fa45af1e1f40c333b3de1db4dd55f29a78610612926576f20000000000000000000000000000000846128ea9190614b01565b93506fa45af1e1f40c333b3de1db4dd55f29a76f80000000000000000000000000000000876129199190614895565b612923919061491e565b95505b6f910b022db7ae67ce76b441c27035c6a18610612995576f10000000000000000000000000000000846129599190614b01565b93506f910b022db7ae67ce76b441c27035c6a16f80000000000000000000000000000000876129889190614895565b612992919061491e565b95505b6f88415abbe9a76bead8d00cf112e4d4a88610612a04576f08000000000000000000000000000000846129c89190614b01565b93506f88415abbe9a76bead8d00cf112e4d4a86f80000000000000000000000000000000876129f79190614895565b612a01919061491e565b95505b6f84102b00893f64c705e841d5d4064bd38610612a73576f0400000000000000000000000000000084612a379190614b01565b93506f84102b00893f64c705e841d5d4064bd36f8000000000000000000000000000000087612a669190614895565b612a70919061491e565b95505b6f8204055aaef1c8bd5c3259f4822735a28610612ae2576f0200000000000000000000000000000084612aa69190614b01565b93506f8204055aaef1c8bd5c3259f4822735a26f8000000000000000000000000000000087612ad59190614895565b612adf919061491e565b95505b6f810100ab00222d861931c15e39b44e998610612b51576f0100000000000000000000000000000084612b159190614b01565b93506f810100ab00222d861931c15e39b44e996f8000000000000000000000000000000087612b449190614895565b612b4e919061491e565b95505b6f808040155aabbbe9451521693554f7338610612bbf576e80000000000000000000000000000084612b839190614b01565b93506f808040155aabbbe9451521693554f7336f8000000000000000000000000000000087612bb29190614895565b612bbc919061491e565b95505b6f8000000000000000000000000000000086612bdb9190614acd565b92508291506f800000000000000000000000000000008384612bfd9190614895565b612c07919061491e565b905070010000000000000000000000000000000083700100000000000000000000000000000000612c389190614acd565b83612c439190614895565b612c4d919061491e565b84612c589190614b01565b93506f800000000000000000000000000000008183612c779190614895565b612c81919061491e565b9150700200000000000000000000000000000000836faaaaaaaaaaaaaaaaaaaaaaaaaaaaaaaa612cb19190614acd565b83612cbc9190614895565b612cc6919061491e565b84612cd19190614b01565b93506f800000000000000000000000000000008183612cf09190614895565b612cfa919061491e565b9150700300000000000000000000000000000000836f99999999999999999999999999999999612d2a9190614acd565b83612d359190614895565b612d3f919061491e565b84612d4a9190614b01565b93506f800000000000000000000000000000008183612d699190614895565b612d73919061491e565b9150700400000000000000000000000000000000836f92492492492492492492492492492492612da39190614acd565b83612dae9190614895565b612db8919061491e565b84612dc39190614b01565b93506f800000000000000000000000000000008183612de29190614895565b612dec919061491e565b9150700500000000000000000000000000000000836f8e38e38e38e38e38e38e38e38e38e38e612e1c9190614acd565b83612e279190614895565b612e31919061491e565b84612e3c9190614b01565b93506f800000000000000000000000000000008183612e5b9190614895565b612e65919061491e565b9150700600000000000000000000000000000000836f8ba2e8ba2e8ba2e8ba2e8ba2e8ba2e8b612e959190614acd565b83612ea09190614895565b612eaa919061491e565b84612eb59190614b01565b93506f800000000000000000000000000000008183612ed49190614895565b612ede919061491e565b9150700700000000000000000000000000000000836f89d89d89d89d89d89d89d89d89d89d89612f0e9190614acd565b83612f199190614895565b612f23919061491e565b84612f2e9190614b01565b93506f800000000000000000000000000000008183612f4d9190614895565b612f57919061491e565b9150700800000000000000000000000000000000836f88888888888888888888888888888888612f879190614acd565b83612f929190614895565b612f9c919061491e565b84612fa79190614b01565b935083945050505050919050565b600080600090507001000000000000000000000000000000008310613028576000612ffa6f8000000000000000000000000000000085612ff5919061491e565b61410e565b90508060ff1684901c93506f800000000000000000000000000000008160ff166130249190614895565b9150505b6f800000000000000000000000000000008311156130d0576000607f90505b60008160ff1611156130ce576f8000000000000000000000000000000084856130709190614895565b61307a919061491e565b935070010000000000000000000000000000000084106130bd57600184901c93506001816130a89190614cf8565b60ff166001901b826130ba9190614b01565b91505b806130c7906151e7565b9050613047565b505b6f05b9de1d10bf4103d647b0955897ba806f03f80fe03f80fe03f80fe03f80fe03f8826130fd9190614895565b613107919061491e565b915050919050565b600080600090506000806f10000000000000000000000000000000856131359190615211565b91508190506f8000000000000000000000000000000082826131579190614895565b613161919061491e565b90506710e1b3be415a0000816131779190614895565b836131829190614b01565b92506f8000000000000000000000000000000082826131a19190614895565b6131ab919061491e565b90506705a0913f6b1e0000816131c19190614895565b836131cc9190614b01565b92506f8000000000000000000000000000000082826131eb9190614895565b6131f5919061491e565b9050670168244fdac780008161320b9190614895565b836132169190614b01565b92506f8000000000000000000000000000000082826132359190614895565b61323f919061491e565b9050664807432bc18000816132549190614895565b8361325f9190614b01565b92506f80000000000000000000000000000000828261327e9190614895565b613288919061491e565b9050660c0135dca040008161329d9190614895565b836132a89190614b01565b92506f8000000000000000000000000000000082826132c79190614895565b6132d1919061491e565b90506601b707b1cdc000816132e69190614895565b836132f19190614b01565b92506f8000000000000000000000000000000082826133109190614895565b61331a919061491e565b90506536e0f639b8008161332e9190614895565b836133399190614b01565b92506f8000000000000000000000000000000082826133589190614895565b613362919061491e565b9050650618fee9f800816133769190614895565b836133819190614b01565b92506f8000000000000000000000000000000082826133a09190614895565b6133aa919061491e565b9050649c197dcc00816133bd9190614895565b836133c89190614b01565b92506f8000000000000000000000000000000082826133e79190614895565b6133f1919061491e565b9050640e30dce400816134049190614895565b8361340f9190614b01565b92506f80000000000000000000000000000000828261342e9190614895565b613438919061491e565b905064012ebd13008161344b9190614895565b836134569190614b01565b92506f8000000000000000000000000000000082826134759190614895565b61347f919061491e565b90506317499f00816134919190614895565b8361349c9190614b01565b92506f8000000000000000000000000000000082826134bb9190614895565b6134c5919061491e565b90506301a9d480816134d79190614895565b836134e29190614b01565b92506f8000000000000000000000000000000082826135019190614895565b61350b919061491e565b9050621c63808161351c9190614895565b836135279190614b01565b92506f8000000000000000000000000000000082826135469190614895565b613550919061491e565b90506201c638816135619190614895565b8361356c9190614b01565b92506f80000000000000000000000000000000828261358b9190614895565b613595919061491e565b9050611ab8816135a59190614895565b836135b09190614b01565b92506f8000000000000000000000000000000082826135cf9190614895565b6135d9919061491e565b905061017c816135e99190614895565b836135f49190614b01565b92506f8000000000000000000000000000000082826136139190614895565b61361d919061491e565b905060148161362c9190614895565b836136379190614b01565b92506f8000000000000000000000000000000082826136569190614895565b613660919061491e565b905060018161366f9190614895565b8361367a9190614b01565b92506f80000000000000000000000000000000826721c3677c82b40000856136a2919061491e565b6136ac9190614b01565b6136b69190614b01565b925060006f1000000000000000000000000000000086161461370e5770018ebef9eac820ae8682b9793ac6d1e7767001c3d6a24ed82218787d624d3e5eba95f9846137019190614895565b61370b919061491e565b92505b60006f20000000000000000000000000000000861614613764577001368b2fc6f9609fe7aceb46aa619baed470018ebef9eac820ae8682b9793ac6d1e778846137579190614895565b613761919061491e565b92505b60006f400000000000000000000000000000008616146137b9576fbc5ab1b16779be3575bd8f0520a9f21f7001368b2fc6f9609fe7aceb46aa619baed5846137ac9190614895565b6137b6919061491e565b92505b60006f8000000000000000000000000000000086161461380d576f454aaa8efe072e7f6ddbab84b40a55c96fbc5ab1b16779be3575bd8f0520a9f21e846138009190614895565b61380a919061491e565b92505b6000700100000000000000000000000000000000861614613862576f0960aadc109e7a3bf4578099615711ea6f454aaa8efe072e7f6ddbab84b40a55c5846138559190614895565b61385f919061491e565b92505b60007002000000000000000000000000000000008616146138b6576e2bf84208204f5977f9a8cf01fdce3d6f0960aadc109e7a3bf4578099615711d7846138a99190614895565b6138b3919061491e565b92505b6000700400000000000000000000000000000000861614613908576d03c6ab775dd0b95b4cbee7e65d116e2bf84208204f5977f9a8cf01fdc307846138fb9190614895565b613905919061491e565b92505b829350505050919050565b600080602090506000607f90505b8060ff166001836139329190615242565b60ff1610156139885760006002828461394b9190615242565b6139559190615279565b905084600a8260ff166080811061396f5761396e614d2c565b5b01541061397e57809250613982565b8091505b50613921565b83600a8260ff16608081106139a05761399f614d2c565b5b0154106139b15780925050506139f0565b83600a8360ff16608081106139c9576139c8614d2c565b5b0154106139da5781925050506139f0565b60006139e9576139e8614cc9565b5b6000925050505b919050565b60008083905060008360ff168583613a0d9190614895565b901c91506f03442c4e6074a82f1797f72ac000000082613a2d9190614895565b81613a389190614b01565b90508360ff168583613a4a9190614895565b901c91506f0116b96f757c380fb287fd0e4000000082613a6a9190614895565b81613a759190614b01565b90508360ff168583613a879190614895565b901c91506e45ae5bdd5f0e03eca1ff439000000082613aa69190614895565b81613ab19190614b01565b90508360ff168583613ac39190614895565b901c91506e0defabf91302cd95b9ffda5000000082613ae29190614895565b81613aed9190614b01565b90508360ff168583613aff9190614895565b901c91506e02529ca9832b22439efff9b800000082613b1e9190614895565b81613b299190614b01565b90508360ff168583613b3b9190614895565b901c91506d54f1cf12bd04e516b6da8800000082613b599190614895565b81613b649190614b01565b90508360ff168583613b769190614895565b901c91506d0a9e39e257a09ca2d6db5100000082613b949190614895565b81613b9f9190614b01565b90508360ff168583613bb19190614895565b901c91506d012e066e7b839fa050c30900000082613bcf9190614895565b81613bda9190614b01565b90508360ff168583613bec9190614895565b901c91506c1e33d7d926c329a1ad1a80000082613c099190614895565b81613c149190614b01565b90508360ff168583613c269190614895565b901c91506c02bee513bdb4a6b19b5f80000082613c439190614895565b81613c4e9190614b01565b90508360ff168583613c609190614895565b901c91506b3a9316fa79b88eccf2a0000082613c7c9190614895565b81613c879190614b01565b90508360ff168583613c999190614895565b901c91506b048177ebe1fa81237520000082613cb59190614895565b81613cc09190614b01565b90508360ff168583613cd29190614895565b901c91506a5263fe90242dcbacf0000082613ced9190614895565b81613cf89190614b01565b90508360ff168583613d0a9190614895565b901c91506a057e22099c030d9410000082613d259190614895565b81613d309190614b01565b90508360ff168583613d429190614895565b901c91506957e22099c030d941000082613d5c9190614895565b81613d679190614b01565b90508360ff168583613d799190614895565b901c915069052b6b5456997631000082613d939190614895565b81613d9e9190614b01565b90508360ff168583613db09190614895565b901c9150684985f67696bf74800082613dc99190614895565b81613dd49190614b01565b90508360ff168583613de69190614895565b901c91506803dea12ea99e49800082613dff9190614895565b81613e0a9190614b01565b90508360ff168583613e1c9190614895565b901c91506731880f2214b6e00082613e349190614895565b81613e3f9190614b01565b90508360ff168583613e519190614895565b901c915067025bcff56eb3600082613e699190614895565b81613e749190614b01565b90508360ff168583613e869190614895565b901c9150661b722e10ab100082613e9d9190614895565b81613ea89190614b01565b90508360ff168583613eba9190614895565b901c91506601317c7007700082613ed19190614895565b81613edc9190614b01565b90508360ff168583613eee9190614895565b901c9150650cba84aafa0082613f049190614895565b81613f0f9190614b01565b90508360ff168583613f219190614895565b901c91506482573a0a0082613f369190614895565b81613f419190614b01565b90508360ff168583613f539190614895565b901c91506405035ad90082613f689190614895565b81613f739190614b01565b90508360ff168583613f859190614895565b901c9150632f881b0082613f999190614895565b81613fa49190614b01565b90508360ff168583613fb69190614895565b901c91506301b2934082613fca9190614895565b81613fd59190614b01565b90508360ff168583613fe79190614895565b901c9150620efc4082613ffa9190614895565b816140059190614b01565b90508360ff1685836140179190614895565b901c9150617fe0826140299190614895565b816140349190614b01565b90508360ff1685836140469190614895565b901c9150610420826140589190614895565b816140639190614b01565b90508360ff1685836140759190614895565b901c91506021826140869190614895565b816140919190614b01565b90508360ff1685836140a39190614895565b901c91506001826140b49190614895565b816140bf9190614b01565b90508360ff166001901b856f0688589cc0e9505e2f2fee5580000000836140e6919061491e565b6140f09190614b01565b6140fa9190614b01565b9250505092915050565b505050565b505050565b60008060009050610100831015614149575b600183111561414457600183901c925060018161413d9190615242565b9050614120565b61418a565b6000608090505b60008160ff161115614188578060ff166001901b8410614179578060ff1684901c935080821791505b60018160ff16901c9050614150565b505b80915050919050565b82805461419f90614834565b90600052602060002090601f0160209004810192826141c15760008555614208565b82601f106141da57805160ff1916838001178555614208565b82800160010185558215614208579182015b828111156142075782518255916020019190600101906141ec565b5b5090506142159190614219565b5090565b5b8082111561423257600081600090555060010161421a565b5090565b600081519050919050565b600082825260208201905092915050565b60005b83811015614270578082015181840152602081019050614255565b8381111561427f576000848401525b50505050565b6000601f19601f8301169050919050565b60006142a182614236565b6142ab8185614241565b93506142bb818560208601614252565b6142c481614285565b840191505092915050565b600060208201905081810360008301526142e98184614296565b905092915050565b6000604051905090565b600080fd5b600080fd5b600073ffffffffffffffffffffffffffffffffffffffff82169050919050565b600061433082614305565b9050919050565b61434081614325565b811461434b57600080fd5b50565b60008135905061435d81614337565b92915050565b6000819050919050565b61437681614363565b811461438157600080fd5b50565b6000813590506143938161436d565b92915050565b600080604083850312156143b0576143af6142fb565b5b60006143be8582860161434e565b92505060206143cf85828601614384565b9150509250929050565b60008115159050919050565b6143ee816143d9565b82525050565b600060208201905061440960008301846143e5565b92915050565b61441881614363565b82525050565b6000602082019050614433600083018461440f565b92915050565b600080fd5b600080fd5b7f4e487b7100000000000000000000000000000000000000000000000000000000600052604160045260246000fd5b61447b82614285565b810181811067ffffffffffffffff8211171561449a57614499614443565b5b80604052505050565b60006144ad6142f1565b90506144b98282614472565b919050565b600067ffffffffffffffff8211156144d9576144d8614443565b5b6144e282614285565b9050602081019050919050565b82818337600083830152505050565b600061451161450c846144be565b6144a3565b90508281526020810184848401111561452d5761452c61443e565b5b6145388482856144ef565b509392505050565b600082601f83011261455557614554614439565b5b81356145658482602086016144fe565b91505092915050565b600080600060608486031215614587576145866142fb565b5b600084013567ffffffffffffffff8111156145a5576145a4614300565b5b6145b186828701614540565b935050602084013567ffffffffffffffff8111156145d2576145d1614300565b5b6145de86828701614540565b92505060406145ef86828701614384565b9150509250925092565b600080600060608486031215614612576146116142fb565b5b60006146208682870161434e565b93505060206146318682870161434e565b925050604061464286828701614384565b9150509250925092565b600060208284031215614662576146616142fb565b5b60006146708482850161434e565b91505092915050565b600060ff82169050919050565b61468f81614679565b82525050565b60006020820190506146aa6000830184614686565b92915050565b600063ffffffff82169050919050565b6146c9816146b0565b81146146d457600080fd5b50565b6000813590506146e6816146c0565b92915050565b60008060008060808587031215614706576147056142fb565b5b600061471487828801614384565b945050602061472587828801614384565b9350506040614736878288016146d7565b9250506060614747878288016146d7565b91505092959194509250565b6000604082019050614768600083018561440f565b6147756020830184614686565b9392505050565b600060208284031215614792576147916142fb565b5b600082013567ffffffffffffffff8111156147b0576147af614300565b5b6147bc84828501614540565b91505092915050565b600080604083850312156147dc576147db6142fb565b5b60006147ea8582860161434e565b92505060206147fb8582860161434e565b9150509250929050565b7f4e487b7100000000000000000000000000000000000000000000000000000000600052602260045260246000fd5b6000600282049050600182168061484c57607f821691505b602082108114156148605761485f614805565b5b50919050565b7f4e487b7100000000000000000000000000000000000000000000000000000000600052601160045260246000fd5b60006148a082614363565b91506148ab83614363565b9250817fffffffffffffffffffffffffffffffffffffffffffffffffffffffffffffffff04831182151516156148e4576148e3614866565b5b828202905092915050565b7f4e487b7100000000000000000000000000000000000000000000000000000000600052601260045260246000fd5b600061492982614363565b915061493483614363565b925082614944576149436148ef565b5b828204905092915050565b60008160011c9050919050565b6000808291508390505b60018511156149a65780860481111561498257614981614866565b5b60018516156149915780820291505b808102905061499f8561494f565b9450614966565b94509492505050565b6000826149bf5760019050614a7b565b816149cd5760009050614a7b565b81600181146149e357600281146149ed57614a1c565b6001915050614a7b565b60ff8411156149ff576149fe614866565b5b8360020a915084821115614a1657614a15614866565b5b50614a7b565b5060208310610133831016604e8410600b8410161715614a515782820a905083811115614a4c57614a4b614866565b5b614a7b565b614a5e848484600161495c565b92509050818404811115614a7557614a74614866565b5b81810290505b9392505050565b6000614a8d82614363565b9150614a9883614363565b9250614ac57fffffffffffffffffffffffffffffffffffffffffffffffffffffffffffffffff84846149af565b905092915050565b6000614ad882614363565b9150614ae383614363565b925082821015614af657614af5614866565b5b828203905092915050565b6000614b0c82614363565b9150614b1783614363565b9250827fffffffffffffffffffffffffffffffffffffffffffffffffffffffffffffffff03821115614b4c57614b4b614866565b5b828201905092915050565b6000614b6282614363565b91507fffffffffffffffffffffffffffffffffffffffffffffffffffffffffffffffff821415614b9557614b94614866565b5b600182019050919050565b600081905092915050565b50565b6000614bbb600083614ba0565b9150614bc682614bab565b600082019050919050565b6000614bdc82614bae565b9150819050919050565b60008190508160005260206000209050919050565b60008154614c0881614834565b614c128186614ba0565b94506001821660008114614c2d5760018114614c3e57614c71565b60ff19831686528186019350614c71565b614c4785614be6565b60005b83811015614c6957815481890152600182019150602081019050614c4a565b838801955050505b50505092915050565b6000614c868284614bfb565b915081905092915050565b614c9a81614325565b82525050565b6000604082019050614cb56000830185614c91565b614cc2602083018461440f565b9392505050565b7f4e487b7100000000000000000000000000000000000000000000000000000000600052600160045260246000fd5b6000614d0382614679565b9150614d0e83614679565b925082821015614d2157614d20614866565b5b828203905092915050565b7f4e487b7100000000000000000000000000000000000000000000000000000000600052603260045260246000fd5b7f45524332303a2064656372656173656420616c6c6f77616e63652062656c6f7760008201527f207a65726f000000000000000000000000000000000000000000000000000000602082015250565b6000614db7602583614241565b9150614dc282614d5b565b604082019050919050565b60006020820190508181036000830152614de681614daa565b9050919050565b6000614df882614236565b614e028185614ba0565b9350614e12818560208601614252565b80840191505092915050565b6000614e2a8284614ded565b915081905092915050565b7f45524332303a20617070726f76652066726f6d20746865207a65726f2061646460008201527f7265737300000000000000000000000000000000000000000000000000000000602082015250565b6000614e91602483614241565b9150614e9c82614e35565b604082019050919050565b60006020820190508181036000830152614ec081614e84565b9050919050565b7f45524332303a20617070726f766520746f20746865207a65726f20616464726560008201527f7373000000000000000000000000000000000000000000000000000000000000602082015250565b6000614f23602283614241565b9150614f2e82614ec7565b604082019050919050565b60006020820190508181036000830152614f5281614f16565b9050919050565b7f45524332303a206d696e7420746f20746865207a65726f206164647265737300600082015250565b6000614f8f601f83614241565b9150614f9a82614f59565b602082019050919050565b60006020820190508181036000830152614fbe81614f82565b9050919050565b7f45524332303a20696e73756666696369656e7420616c6c6f77616e6365000000600082015250565b6000614ffb601d83614241565b915061500682614fc5565b602082019050919050565b6000602082019050818103600083015261502a81614fee565b9050919050565b7f45524332303a207472616e736665722066726f6d20746865207a65726f20616460008201527f6472657373000000000000000000000000000000000000000000000000000000602082015250565b600061508d602583614241565b915061509882615031565b604082019050919050565b600060208201905081810360008301526150bc81615080565b9050919050565b7f45524332303a207472616e7366657220746f20746865207a65726f206164647260008201527f6573730000000000000000000000000000000000000000000000000000000000602082015250565b600061511f602383614241565b915061512a826150c3565b604082019050919050565b6000602082019050818103600083015261514e81615112565b9050919050565b7f45524332303a207472616e7366657220616d6f756e742065786365656473206260008201527f616c616e63650000000000000000000000000000000000000000000000000000602082015250565b60006151b1602683614241565b91506151bc82615155565b604082019050919050565b600060208201905081810360008301526151e0816151a4565b9050919050565b60006151f282614679565b9150600082141561520657615205614866565b5b600182039050919050565b600061521c82614363565b915061522783614363565b925082615237576152366148ef565b5b828206905092915050565b600061524d82614679565b915061525883614679565b92508260ff0382111561526e5761526d614866565b5b828201905092915050565b600061528482614679565b915061528f83614679565b92508261529f5761529e6148ef565b5b82820490509291505056fea2646970667358221220cebeab0d51abd3f12bb24691f0e0c376c2340673bd63cc69afb3efeeff73368164736f6c634300080a0033",
  "linkReferences": {},
  "deployedLinkReferences": {}
}