{
  "_format": "hh-sol-artifact-1",
  "contractName": "VCCToken",
  "sourceName": "contracts/CarbonCredit.sol",
  "abi": [
    {
      "inputs": [],
      "stateMutability": "nonpayable",
      "type": "constructor"
    },
    {
      "anonymous": false,
      "inputs": [
        {
          "indexed": true,
          "internalType": "address",
          "name": "owner",
          "type": "address"
        },
        {
          "indexed": true,
          "internalType": "address",
          "name": "spender",
          "type": "address"
        },
        {
          "indexed": false,
          "internalType": "uint256",
          "name": "value",
          "type": "uint256"
        }
      ],
      "name": "Approval",
      "type": "event"
    },
    {
      "anonymous": false,
      "inputs": [
        {
          "indexed": true,
          "internalType": "address",
          "name": "from",
          "type": "address"
        },
        {
          "indexed": true,
          "internalType": "address",
          "name": "to",
          "type": "address"
        },
        {
          "indexed": false,
          "internalType": "uint256",
          "name": "value",
          "type": "uint256"
        }
      ],
      "name": "Transfer",
      "type": "event"
    },
    {
      "anonymous": false,
      "inputs": [
        {
          "indexed": false,
          "internalType": "address",
          "name": "beneficiary",
          "type": "address"
        },
        {
          "indexed": false,
          "internalType": "uint256",
          "name": "amount",
          "type": "uint256"
        }
      ],
      "name": "Verified",
      "type": "event"
    },
    {
      "inputs": [],
      "name": "BancorFormula",
      "outputs": [],
      "stateMutability": "nonpayable",
      "type": "function"
    },
    {
      "inputs": [
        {
          "internalType": "address",
          "name": "owner",
          "type": "address"
        },
        {
          "internalType": "address",
          "name": "spender",
          "type": "address"
        }
      ],
      "name": "allowance",
      "outputs": [
        {
          "internalType": "uint256",
          "name": "",
          "type": "uint256"
        }
      ],
      "stateMutability": "view",
      "type": "function"
    },
    {
      "inputs": [
        {
          "internalType": "address",
          "name": "spender",
          "type": "address"
        },
        {
          "internalType": "uint256",
          "name": "amount",
          "type": "uint256"
        }
      ],
      "name": "approve",
      "outputs": [
        {
          "internalType": "bool",
          "name": "",
          "type": "bool"
        }
      ],
      "stateMutability": "nonpayable",
      "type": "function"
    },
    {
      "inputs": [
        {
          "internalType": "address",
          "name": "account",
          "type": "address"
        }
      ],
      "name": "balanceOf",
      "outputs": [
        {
          "internalType": "uint256",
          "name": "",
          "type": "uint256"
        }
      ],
      "stateMutability": "view",
      "type": "function"
    },
    {
      "inputs": [],
      "name": "decimals",
      "outputs": [
        {
          "internalType": "uint8",
          "name": "",
          "type": "uint8"
        }
      ],
      "stateMutability": "view",
      "type": "function"
    },
    {
      "inputs": [
        {
          "internalType": "address",
          "name": "spender",
          "type": "address"
        },
        {
          "internalType": "uint256",
          "name": "subtractedValue",
          "type": "uint256"
        }
      ],
      "name": "decreaseAllowance",
      "outputs": [
        {
          "internalType": "bool",
          "name": "",
          "type": "bool"
        }
      ],
      "stateMutability": "nonpayable",
      "type": "function"
    },
    {
      "inputs": [
        {
          "internalType": "address",
          "name": "spender",
          "type": "address"
        },
        {
          "internalType": "uint256",
          "name": "addedValue",
          "type": "uint256"
        }
      ],
      "name": "increaseAllowance",
      "outputs": [
        {
          "internalType": "bool",
          "name": "",
          "type": "bool"
        }
      ],
      "stateMutability": "nonpayable",
      "type": "function"
    },
    {
      "inputs": [
        {
          "internalType": "address",
          "name": "",
          "type": "address"
        }
      ],
      "name": "metadata",
      "outputs": [
        {
          "internalType": "string",
          "name": "",
          "type": "string"
        }
      ],
      "stateMutability": "view",
      "type": "function"
    },
    {
      "inputs": [],
      "name": "name",
      "outputs": [
        {
          "internalType": "string",
          "name": "",
          "type": "string"
        }
      ],
      "stateMutability": "view",
      "type": "function"
    },
    {
      "inputs": [
        {
          "internalType": "uint256",
          "name": "_baseN",
          "type": "uint256"
        },
        {
          "internalType": "uint256",
          "name": "_baseD",
          "type": "uint256"
        },
        {
          "internalType": "uint32",
          "name": "_expN",
          "type": "uint32"
        },
        {
          "internalType": "uint32",
          "name": "_expD",
          "type": "uint32"
        }
      ],
      "name": "power",
      "outputs": [
        {
          "internalType": "uint256",
          "name": "",
          "type": "uint256"
        },
        {
          "internalType": "uint8",
          "name": "",
          "type": "uint8"
        }
      ],
      "stateMutability": "view",
      "type": "function"
    },
    {
      "inputs": [
        {
          "internalType": "address",
          "name": "",
          "type": "address"
        }
      ],
      "name": "projectDesignDocument",
      "outputs": [
        {
          "internalType": "string",
          "name": "",
          "type": "string"
        }
      ],
      "stateMutability": "view",
      "type": "function"
    },
    {
      "inputs": [
        {
          "internalType": "address",
          "name": "",
          "type": "address"
        }
      ],
      "name": "projectMonitoringReport",
      "outputs": [
        {
          "internalType": "string",
          "name": "",
          "type": "string"
        }
      ],
      "stateMutability": "view",
      "type": "function"
    },
    {
      "inputs": [],
      "name": "symbol",
      "outputs": [
        {
          "internalType": "string",
          "name": "",
          "type": "string"
        }
      ],
      "stateMutability": "view",
      "type": "function"
    },
    {
      "inputs": [],
      "name": "totalSupply",
      "outputs": [
        {
          "internalType": "uint256",
          "name": "",
          "type": "uint256"
        }
      ],
      "stateMutability": "view",
      "type": "function"
    },
    {
      "inputs": [
        {
          "internalType": "address",
          "name": "to",
          "type": "address"
        },
        {
          "internalType": "uint256",
          "name": "amount",
          "type": "uint256"
        }
      ],
      "name": "transfer",
      "outputs": [
        {
          "internalType": "bool",
          "name": "",
          "type": "bool"
        }
      ],
      "stateMutability": "nonpayable",
      "type": "function"
    },
    {
      "inputs": [
        {
          "internalType": "address",
          "name": "from",
          "type": "address"
        },
        {
          "internalType": "address",
          "name": "to",
          "type": "address"
        },
        {
          "internalType": "uint256",
          "name": "amount",
          "type": "uint256"
        }
      ],
      "name": "transferFrom",
      "outputs": [
        {
          "internalType": "bool",
          "name": "",
          "type": "bool"
        }
      ],
      "stateMutability": "nonpayable",
      "type": "function"
    },
    {
      "inputs": [
        {
          "internalType": "string",
          "name": "_metadata",
          "type": "string"
        },
        {
          "internalType": "string",
          "name": "_projectDesignDocument",
          "type": "string"
        },
        {
          "internalType": "uint256",
          "name": "_treeDBH",
          "type": "uint256"
        }
      ],
      "name": "verify",
      "outputs": [],
      "stateMutability": "nonpayable",
      "type": "function"
    }
  ],
  "bytecode": "0x60806040523480156200001157600080fd5b506040518060400160405280601881526020017f56657269666961626c6520436172626f6e2043726564697400000000000000008152506040518060400160405280600381526020017f5643430000000000000000000000000000000000000000000000000000000000815250816003908051906020019062000096929190620000b8565b508060049080519060200190620000af929190620000b8565b505050620001cd565b828054620000c69062000197565b90600052602060002090601f016020900481019282620000ea576000855562000136565b82601f106200010557805160ff191683800117855562000136565b8280016001018555821562000136579182015b828111156200013557825182559160200191906001019062000118565b5b50905062000145919062000149565b5090565b5b80821115620001645760008160009055506001016200014a565b5090565b7f4e487b7100000000000000000000000000000000000000000000000000000000600052602260045260246000fd5b60006002820490506001821680620001b057607f821691505b60208210811415620001c757620001c662000168565b5b50919050565b614bf380620001dd6000396000f3fe608060405234801561001057600080fd5b506004361061010b5760003560e01c806339509351116100a257806395d89b411161007157806395d89b41146102e1578063a457c2d7146102ff578063a9059cbb1461032f578063b04a79501461035f578063dd62ed3e1461038f5761010b565b806339509351146102475780634339868514610277578063633bcaed1461028157806370a08231146102b15761010b565b806323b872dd116100de57806323b872dd146101985780632ba21572146101c8578063313ce567146101f857806332833d51146102165761010b565b806306fdde0314610110578063095ea7b31461012e57806318160ddd1461015e578063206e33e91461017c575b600080fd5b6101186103bf565b6040516101259190613d64565b60405180910390f35b61014860048036038101906101439190613e2e565b610451565b6040516101559190613e89565b60405180910390f35b610166610474565b6040516101739190613eb3565b60405180910390f35b61019660048036038101906101919190614003565b61047e565b005b6101b260048036038101906101ad919061408e565b6106cf565b6040516101bf9190613e89565b60405180910390f35b6101e260048036038101906101dd91906140e1565b6106fe565b6040516101ef9190613d64565b60405180910390f35b61020061079e565b60405161020d919061412a565b60405180910390f35b610230600480360381019061022b9190614181565b6107a7565b60405161023e9291906141e8565b60405180910390f35b610261600480360381019061025c9190613e2e565b6108bf565b60405161026e9190613e89565b60405180910390f35b61027f6108f6565b005b61029b600480360381019061029691906140e1565b611968565b6040516102a89190613d64565b60405180910390f35b6102cb60048036038101906102c691906140e1565b611a08565b6040516102d89190613eb3565b60405180910390f35b6102e9611a50565b6040516102f69190613d64565b60405180910390f35b61031960048036038101906103149190613e2e565b611ae2565b6040516103269190613e89565b60405180910390f35b61034960048036038101906103449190613e2e565b611b59565b6040516103569190613e89565b60405180910390f35b610379600480360381019061037491906140e1565b611b7c565b6040516103869190613d64565b60405180910390f35b6103a960048036038101906103a49190614211565b611c1c565b6040516103b69190613eb3565b60405180910390f35b6060600380546103ce90614280565b80601f01602080910402602001604051908101604052809291908181526020018280546103fa90614280565b80156104475780601f1061041c57610100808354040283529160200191610447565b820191906000526020600020905b81548152906001019060200180831161042a57829003601f168201915b5050505050905090565b60008061045c611ca3565b9050610469818585611cab565b600191505092915050565b6000600254905090565b6000805b605581116105dd5760008061049e8560016163656127106107a7565b60ff16915091506127106103e6836104b691906142e1565b6104c0919061436a565b91506000806104ed8360026104d591906144ce565b856104e0919061436a565b60016102fb6103e86107a7565b60ff16915091506103e860d08361050491906142e1565b61050e919061436a565b91506000620425d490506000620186a09050600060558860556105319190614519565b8661053c91906142e1565b610546919061436a565b905060006064607c8361055991906142e1565b610563919061436a565b905060006064602f8361057691906142e1565b610580919061436a565b905085600261058f91906144ce565b612710618f3a836105a091906142e1565b6105aa919061436a565b6105b4919061436a565b8b6105bf919061454d565b9a5050505050505050505080806105d5906145a3565b915050610482565b506105e83382611e76565b83600560003373ffffffffffffffffffffffffffffffffffffffff1673ffffffffffffffffffffffffffffffffffffffff168152602001908152602001600020908051906020019061063b929190613c28565b5082600660003373ffffffffffffffffffffffffffffffffffffffff1673ffffffffffffffffffffffffffffffffffffffff168152602001908152602001600020908051906020019061068f929190613c28565b507f7c4bd613345b3aec2140d4c4c96782cda06d72b1a593fbb20a72300354f4c33633826040516106c19291906145fb565b60405180910390a150505050565b6000806106da611ca3565b90506106e7858285611fcd565b6106f2858585612059565b60019150509392505050565b6005602052806000526040600020600091509050805461071d90614280565b80601f016020809104026020016040519081016040528092919081815260200182805461074990614280565b80156107965780601f1061076b57610100808354040283529160200191610796565b820191906000526020600020905b81548152906001019060200180831161077957829003601f168201915b505050505081565b60006012905090565b60008070020000000000000000000000000000000086106107cb576107ca614624565b5b600080866f80000000000000000000000000000000896107eb91906142e1565b6107f5919061436a565b905070015bf0a8b1457695355fb8ac404e7a79e381101561082057610819816122d1565b915061082c565b61082981612a4a565b91505b60008563ffffffff168763ffffffff168461084791906142e1565b610851919061436a565b90507008000000000000000000000000000000008110156108835761087581612ba4565b607f945094505050506108b6565b600061088e826133a8565b90506108ac81607f6108a09190614653565b60ff1683901c8261348a565b8195509550505050505b94509492505050565b6000806108ca611ca3565b90506108eb8185856108dc8589611c1c565b6108e6919061454d565b611cab565b600191505092915050565b701c35fedd14ffffffffffffffffffffffff600860206080811061091d5761091c614687565b5b0181905550701b0ce43b323fffffffffffffffffffffff600860216080811061094957610948614687565b5b01819055507019f0028ec1ffffffffffffffffffffffff600860226080811061097557610974614687565b5b01819055507018ded91f0e7fffffffffffffffffffffff60086023608081106109a1576109a0614687565b5b01819055507017d8ec7f0417ffffffffffffffffffffff60086024608081106109cd576109cc614687565b5b01819055507016ddc6556cdbffffffffffffffffffffff60086025608081106109f9576109f8614687565b5b01819055507015ecf52776a1ffffffffffffffffffffff6008602660808110610a2557610a24614687565b5b01819055507015060c256cb2ffffffffffffffffffffff6008602760808110610a5157610a50614687565b5b0181905550701428a2f98d72ffffffffffffffffffffff6008602860808110610a7d57610a7c614687565b5b01819055507013545598e5c23fffffffffffffffffffff6008602960808110610aa957610aa8614687565b5b0181905550701288c4161ce1dfffffffffffffffffffff6008602a60808110610ad557610ad4614687565b5b01819055507011c592761c666fffffffffffffffffffff6008602b60808110610b0157610b00614687565b5b018190555070110a688680a757ffffffffffffffffffff6008602c60808110610b2d57610b2c614687565b5b0181905550701056f1b5bedf77ffffffffffffffffffff6008602d60808110610b5957610b58614687565b5b0181905550700faadceceeff8bffffffffffffffffffff6008602e60808110610b8557610b84614687565b5b0181905550700f05dc6b27edadffffffffffffffffffff6008602f60808110610bb157610bb0614687565b5b0181905550700e67a5a25da4107fffffffffffffffffff6008603060808110610bdd57610bdc614687565b5b0181905550700dcff115b14eedffffffffffffffffffff6008603160808110610c0957610c08614687565b5b0181905550700d3e7a392431239fffffffffffffffffff6008603260808110610c3557610c34614687565b5b0181905550700cb2ff529eb71e4fffffffffffffffffff6008603360808110610c6157610c60614687565b5b0181905550700c2d415c3db974afffffffffffffffffff6008603460808110610c8d57610c8c614687565b5b0181905550700bad03e7d883f69bffffffffffffffffff6008603560808110610cb957610cb8614687565b5b0181905550700b320d03b2c343d5ffffffffffffffffff6008603660808110610ce557610ce4614687565b5b0181905550700abc25204e02828dffffffffffffffffff6008603760808110610d1157610d10614687565b5b0181905550700a4b16f74ee4bb207fffffffffffffffff6008603860808110610d3d57610d3c614687565b5b01819055507009deaf736ac1f569ffffffffffffffffff6008603960808110610d6957610d68614687565b5b0181905550700976bd9952c7aa957fffffffffffffffff6008603a60808110610d9557610d94614687565b5b01819055507009131271922eaa606fffffffffffffffff6008603b60808110610dc157610dc0614687565b5b01819055507008b380f3558668c46fffffffffffffffff6008603c60808110610ded57610dec614687565b5b0181905550700857ddf0117efa215bffffffffffffffff6008603d60808110610e1957610e18614687565b5b01819055507007ffffffffffffffffffffffffffffffff6008603e60808110610e4557610e44614687565b5b01819055507007abbf6f6abb9d087fffffffffffffffff6008603f60808110610e7157610e70614687565b5b018190555070075af62cbac95f7dfa7fffffffffffffff6008604060808110610e9d57610e9c614687565b5b018190555070070d7fb7452e187ac13fffffffffffffff6008604160808110610ec957610ec8614687565b5b01819055507006c3390ecc8af379295fffffffffffffff6008604260808110610ef557610ef4614687565b5b018190555070067c00a3b07ffc01fd6fffffffffffffff6008604360808110610f2157610f20614687565b5b0181905550700637b647c39cbb9d3d27ffffffffffffff6008604460808110610f4d57610f4c614687565b5b01819055507005f63b1fc104dbd39587ffffffffffffff6008604560808110610f7957610f78614687565b5b01819055507005b771955b36e12f7235ffffffffffffff6008604660808110610fa557610fa4614687565b5b018190555070057b3d49dda84556d6f6ffffffffffffff6008604760808110610fd157610fd0614687565b5b018190555070054183095b2c8ececf30ffffffffffffff6008604860808110610ffd57610ffc614687565b5b018190555070050a28be635ca2b888f77fffffffffffff600860496080811061102957611028614687565b5b01819055507004d5156639708c9db33c3fffffffffffff6008604a6080811061105557611054614687565b5b01819055507004a23105873875bd52dfdfffffffffffff6008604b6080811061108157611080614687565b5b0181905550700471649d87199aa990756fffffffffffff6008604c608081106110ad576110ac614687565b5b01819055507004429a21a029d4c1457cfbffffffffffff6008604d608081106110d9576110d8614687565b5b0181905550700415bc6d6fb7dd71af2cb3ffffffffffff6008604e6080811061110557611104614687565b5b01819055507003eab73b3bbfe282243ce1ffffffffffff6008604f6080811061113157611130614687565b5b01819055507003c1771ac9fb6b4c18e229ffffffffffff600860506080811061115d5761115c614687565b5b0181905550700399e96897690418f785257fffffffffff600860516080811061118957611188614687565b5b0181905550700373fc456c53bb779bf0ea9fffffffffff60086052608081106111b5576111b4614687565b5b018190555070034f9e8e490c48e67e6ab8bfffffffffff60086053608081106111e1576111e0614687565b5b018190555070032cbfd4a7adc790560b3337ffffffffff600860546080811061120d5761120c614687565b5b018190555070030b50570f6e5d2acca94613ffffffffff600860556080811061123957611238614687565b5b01819055507002eb40f9f620fda6b56c2861ffffffffff600860566080811061126557611264614687565b5b01819055507002cc8340ecb0d0f520a6af58ffffffffff600860576080811061129157611290614687565b5b01819055507002af09481380a0a35cf1ba02ffffffffff60086058608081106112bd576112bc614687565b5b0181905550700292c5bdd3b92ec810287b1b3fffffffff60086059608081106112e9576112e8614687565b5b0181905550700277abdcdab07d5a77ac6d6b9fffffffff6008605a6080811061131557611314614687565b5b018190555070025daf6654b1eaa55fd64df5efffffffff6008605b6080811061134157611340614687565b5b0181905550700244c49c648baa98192dce88b7ffffffff6008605c6080811061136d5761136c614687565b5b018190555070022ce03cd5619a311b2471268bffffffff6008605d6080811061139957611398614687565b5b0181905550700215f77c045fbe885654a44a0fffffffff6008605e608081106113c5576113c4614687565b5b01819055507001ffffffffffffffffffffffffffffffff6008605f608081106113f1576113f0614687565b5b01819055507001eaefdbdaaee7421fc4d3ede5ffffffff600860606080811061141d5761141c614687565b5b01819055507001d6bd8b2eb257df7e8ca57b09bfffffff600860616080811061144957611448614687565b5b01819055507001c35fedd14b861eb0443f7f133fffffff600860626080811061147557611474614687565b5b01819055507001b0ce43b322bcde4a56e8ada5afffffff60086063608081106114a1576114a0614687565b5b018190555070019f0028ec1fff007f5a195a39dfffffff60086064608081106114cd576114cc614687565b5b018190555070018ded91f0e72ee74f49b15ba527ffffff60086065608081106114f9576114f8614687565b5b018190555070017d8ec7f04136f4e5615fd41a63ffffff600860666080811061152557611524614687565b5b018190555070016ddc6556cdb84bdc8d12d22e6fffffff600860676080811061155157611550614687565b5b018190555070015ecf52776a1155b5bd8395814f7fffff600860686080811061157d5761157c614687565b5b018190555070015060c256cb23b3b3cc3754cf40ffffff60086069608081106115a9576115a8614687565b5b01819055507001428a2f98d728ae223ddab715be3fffff6008606a608081106115d5576115d4614687565b5b018190555070013545598e5c23276ccf0ede68034fffff6008606b6080811061160157611600614687565b5b01819055507001288c4161ce1d6f54b7f61081194fffff6008606c6080811061162d5761162c614687565b5b018190555070011c592761c666aa641d5a01a40f17ffff6008606d6080811061165957611658614687565b5b0181905550700110a688680a7530515f3e6e6cfdcdffff6008606e6080811061168557611684614687565b5b01819055507001056f1b5bedf75c6bcb2ce8aed428ffff6008606f608081106116b1576116b0614687565b5b01819055506ffaadceceeff8a0890f3875f008277fff60086070608081106116dc576116db614687565b5b01819055506ff05dc6b27edad306388a600f6ba0bfff600860716080811061170757611706614687565b5b01819055506fe67a5a25da41063de1495d5b18cdbfff600860726080811061173257611731614687565b5b01819055506fdcff115b14eedde6fc3aa5353f2e4fff600860736080811061175d5761175c614687565b5b01819055506fd3e7a3924312399f9aae2e0f868f8fff600860746080811061178857611787614687565b5b01819055506fcb2ff529eb71e41582cccd5a1ee26fff60086075608081106117b3576117b2614687565b5b01819055506fc2d415c3db974ab32a51840c0b67edff60086076608081106117de576117dd614687565b5b01819055506fbad03e7d883f69ad5b0a186184e06bff600860776080811061180957611808614687565b5b01819055506fb320d03b2c343d4829abd6075f0cc5ff600860786080811061183457611833614687565b5b01819055506fabc25204e02828d73c6e80bcdb1a95bf600860796080811061185f5761185e614687565b5b01819055506fa4b16f74ee4bb2040a1ec6c15fbbf2df6008607a6080811061188a57611889614687565b5b01819055506f9deaf736ac1f569deb1b5ae3f36c130f6008607b608081106118b5576118b4614687565b5b01819055506f976bd9952c7aa957f5937d790ef650376008607c608081106118e0576118df614687565b5b01819055506f9131271922eaa6064b73a22d0bd4f2bf6008607d6080811061190b5761190a614687565b5b01819055506f8b380f3558668c46c91c49a2f8e967b96008607e6080811061193657611935614687565b5b01819055506f857ddf0117efa215952912839f6473e66008607f6080811061196157611960614687565b5b0181905550565b6007602052806000526040600020600091509050805461198790614280565b80601f01602080910402602001604051908101604052809291908181526020018280546119b390614280565b8015611a005780601f106119d557610100808354040283529160200191611a00565b820191906000526020600020905b8154815290600101906020018083116119e357829003601f168201915b505050505081565b60008060008373ffffffffffffffffffffffffffffffffffffffff1673ffffffffffffffffffffffffffffffffffffffff168152602001908152602001600020549050919050565b606060048054611a5f90614280565b80601f0160208091040260200160405190810160405280929190818152602001828054611a8b90614280565b8015611ad85780601f10611aad57610100808354040283529160200191611ad8565b820191906000526020600020905b815481529060010190602001808311611abb57829003601f168201915b5050505050905090565b600080611aed611ca3565b90506000611afb8286611c1c565b905083811015611b40576040517f08c379a0000000000000000000000000000000000000000000000000000000008152600401611b3790614728565b60405180910390fd5b611b4d8286868403611cab565b60019250505092915050565b600080611b64611ca3565b9050611b71818585612059565b600191505092915050565b60066020528060005260406000206000915090508054611b9b90614280565b80601f0160208091040260200160405190810160405280929190818152602001828054611bc790614280565b8015611c145780601f10611be957610100808354040283529160200191611c14565b820191906000526020600020905b815481529060010190602001808311611bf757829003601f168201915b505050505081565b6000600160008473ffffffffffffffffffffffffffffffffffffffff1673ffffffffffffffffffffffffffffffffffffffff16815260200190815260200160002060008373ffffffffffffffffffffffffffffffffffffffff1673ffffffffffffffffffffffffffffffffffffffff16815260200190815260200160002054905092915050565b600033905090565b600073ffffffffffffffffffffffffffffffffffffffff168373ffffffffffffffffffffffffffffffffffffffff161415611d1b576040517f08c379a0000000000000000000000000000000000000000000000000000000008152600401611d12906147ba565b60405180910390fd5b600073ffffffffffffffffffffffffffffffffffffffff168273ffffffffffffffffffffffffffffffffffffffff161415611d8b576040517f08c379a0000000000000000000000000000000000000000000000000000000008152600401611d829061484c565b60405180910390fd5b80600160008573ffffffffffffffffffffffffffffffffffffffff1673ffffffffffffffffffffffffffffffffffffffff16815260200190815260200160002060008473ffffffffffffffffffffffffffffffffffffffff1673ffffffffffffffffffffffffffffffffffffffff168152602001908152602001600020819055508173ffffffffffffffffffffffffffffffffffffffff168373ffffffffffffffffffffffffffffffffffffffff167f8c5be1e5ebec7d5bd14f71427d1e84f3dd0314c0f7b2291e5b200ac8c7c3b92583604051611e699190613eb3565b60405180910390a3505050565b600073ffffffffffffffffffffffffffffffffffffffff168273ffffffffffffffffffffffffffffffffffffffff161415611ee6576040517f08c379a0000000000000000000000000000000000000000000000000000000008152600401611edd906148b8565b60405180910390fd5b611ef260008383613b99565b8060026000828254611f04919061454d565b92505081905550806000808473ffffffffffffffffffffffffffffffffffffffff1673ffffffffffffffffffffffffffffffffffffffff168152602001908152602001600020600082825401925050819055508173ffffffffffffffffffffffffffffffffffffffff16600073ffffffffffffffffffffffffffffffffffffffff167fddf252ad1be2c89b69c2b068fc378daa952ba7f163c4a11628f55a4df523b3ef83604051611fb59190613eb3565b60405180910390a3611fc960008383613b9e565b5050565b6000611fd98484611c1c565b90507fffffffffffffffffffffffffffffffffffffffffffffffffffffffffffffffff81146120535781811015612045576040517f08c379a000000000000000000000000000000000000000000000000000000000815260040161203c90614924565b60405180910390fd5b6120528484848403611cab565b5b50505050565b600073ffffffffffffffffffffffffffffffffffffffff168373ffffffffffffffffffffffffffffffffffffffff1614156120c9576040517f08c379a00000000000000000000000000000000000000000000000000000000081526004016120c0906149b6565b60405180910390fd5b600073ffffffffffffffffffffffffffffffffffffffff168273ffffffffffffffffffffffffffffffffffffffff161415612139576040517f08c379a000000000000000000000000000000000000000000000000000000000815260040161213090614a48565b60405180910390fd5b612144838383613b99565b60008060008573ffffffffffffffffffffffffffffffffffffffff1673ffffffffffffffffffffffffffffffffffffffff168152602001908152602001600020549050818110156121ca576040517f08c379a00000000000000000000000000000000000000000000000000000000081526004016121c190614ada565b60405180910390fd5b8181036000808673ffffffffffffffffffffffffffffffffffffffff1673ffffffffffffffffffffffffffffffffffffffff16815260200190815260200160002081905550816000808573ffffffffffffffffffffffffffffffffffffffff1673ffffffffffffffffffffffffffffffffffffffff168152602001908152602001600020600082825401925050819055508273ffffffffffffffffffffffffffffffffffffffff168473ffffffffffffffffffffffffffffffffffffffff167fddf252ad1be2c89b69c2b068fc378daa952ba7f163c4a11628f55a4df523b3ef846040516122b89190613eb3565b60405180910390a36122cb848484613b9e565b50505050565b6000806000905060008060006fd3094c70f034de4b96ff7d5b6f99fcd8861061234c576f4000000000000000000000000000000084612310919061454d565b93506fd3094c70f034de4b96ff7d5b6f99fcd86f800000000000000000000000000000008761233f91906142e1565b612349919061436a565b95505b6fa45af1e1f40c333b3de1db4dd55f29a786106123bb576f200000000000000000000000000000008461237f919061454d565b93506fa45af1e1f40c333b3de1db4dd55f29a76f80000000000000000000000000000000876123ae91906142e1565b6123b8919061436a565b95505b6f910b022db7ae67ce76b441c27035c6a1861061242a576f10000000000000000000000000000000846123ee919061454d565b93506f910b022db7ae67ce76b441c27035c6a16f800000000000000000000000000000008761241d91906142e1565b612427919061436a565b95505b6f88415abbe9a76bead8d00cf112e4d4a88610612499576f080000000000000000000000000000008461245d919061454d565b93506f88415abbe9a76bead8d00cf112e4d4a86f800000000000000000000000000000008761248c91906142e1565b612496919061436a565b95505b6f84102b00893f64c705e841d5d4064bd38610612508576f04000000000000000000000000000000846124cc919061454d565b93506f84102b00893f64c705e841d5d4064bd36f80000000000000000000000000000000876124fb91906142e1565b612505919061436a565b95505b6f8204055aaef1c8bd5c3259f4822735a28610612577576f020000000000000000000000000000008461253b919061454d565b93506f8204055aaef1c8bd5c3259f4822735a26f800000000000000000000000000000008761256a91906142e1565b612574919061436a565b95505b6f810100ab00222d861931c15e39b44e9986106125e6576f01000000000000000000000000000000846125aa919061454d565b93506f810100ab00222d861931c15e39b44e996f80000000000000000000000000000000876125d991906142e1565b6125e3919061436a565b95505b6f808040155aabbbe9451521693554f7338610612654576e80000000000000000000000000000084612618919061454d565b93506f808040155aabbbe9451521693554f7336f800000000000000000000000000000008761264791906142e1565b612651919061436a565b95505b6f80000000000000000000000000000000866126709190614519565b92508291506f80000000000000000000000000000000838461269291906142e1565b61269c919061436a565b9050700100000000000000000000000000000000837001000000000000000000000000000000006126cd9190614519565b836126d891906142e1565b6126e2919061436a565b846126ed919061454d565b93506f80000000000000000000000000000000818361270c91906142e1565b612716919061436a565b9150700200000000000000000000000000000000836faaaaaaaaaaaaaaaaaaaaaaaaaaaaaaaa6127469190614519565b8361275191906142e1565b61275b919061436a565b84612766919061454d565b93506f80000000000000000000000000000000818361278591906142e1565b61278f919061436a565b9150700300000000000000000000000000000000836f999999999999999999999999999999996127bf9190614519565b836127ca91906142e1565b6127d4919061436a565b846127df919061454d565b93506f8000000000000000000000000000000081836127fe91906142e1565b612808919061436a565b9150700400000000000000000000000000000000836f924924924924924924924924924924926128389190614519565b8361284391906142e1565b61284d919061436a565b84612858919061454d565b93506f80000000000000000000000000000000818361287791906142e1565b612881919061436a565b9150700500000000000000000000000000000000836f8e38e38e38e38e38e38e38e38e38e38e6128b19190614519565b836128bc91906142e1565b6128c6919061436a565b846128d1919061454d565b93506f8000000000000000000000000000000081836128f091906142e1565b6128fa919061436a565b9150700600000000000000000000000000000000836f8ba2e8ba2e8ba2e8ba2e8ba2e8ba2e8b61292a9190614519565b8361293591906142e1565b61293f919061436a565b8461294a919061454d565b93506f80000000000000000000000000000000818361296991906142e1565b612973919061436a565b9150700700000000000000000000000000000000836f89d89d89d89d89d89d89d89d89d89d896129a39190614519565b836129ae91906142e1565b6129b8919061436a565b846129c3919061454d565b93506f8000000000000000000000000000000081836129e291906142e1565b6129ec919061436a565b9150700800000000000000000000000000000000836f88888888888888888888888888888888612a1c9190614519565b83612a2791906142e1565b612a31919061436a565b84612a3c919061454d565b935083945050505050919050565b600080600090507001000000000000000000000000000000008310612abd576000612a8f6f8000000000000000000000000000000085612a8a919061436a565b613ba3565b90508060ff1684901c93506f800000000000000000000000000000008160ff16612ab991906142e1565b9150505b6f80000000000000000000000000000000831115612b65576000607f90505b60008160ff161115612b63576f800000000000000000000000000000008485612b0591906142e1565b612b0f919061436a565b93507001000000000000000000000000000000008410612b5257600184901c9350600181612b3d9190614653565b60ff166001901b82612b4f919061454d565b91505b80612b5c90614afa565b9050612adc565b505b6f05b9de1d10bf4103d647b0955897ba806f03f80fe03f80fe03f80fe03f80fe03f882612b9291906142e1565b612b9c919061436a565b915050919050565b600080600090506000806f1000000000000000000000000000000085612bca9190614b24565b91508190506f800000000000000000000000000000008282612bec91906142e1565b612bf6919061436a565b90506710e1b3be415a000081612c0c91906142e1565b83612c17919061454d565b92506f800000000000000000000000000000008282612c3691906142e1565b612c40919061436a565b90506705a0913f6b1e000081612c5691906142e1565b83612c61919061454d565b92506f800000000000000000000000000000008282612c8091906142e1565b612c8a919061436a565b9050670168244fdac7800081612ca091906142e1565b83612cab919061454d565b92506f800000000000000000000000000000008282612cca91906142e1565b612cd4919061436a565b9050664807432bc1800081612ce991906142e1565b83612cf4919061454d565b92506f800000000000000000000000000000008282612d1391906142e1565b612d1d919061436a565b9050660c0135dca0400081612d3291906142e1565b83612d3d919061454d565b92506f800000000000000000000000000000008282612d5c91906142e1565b612d66919061436a565b90506601b707b1cdc00081612d7b91906142e1565b83612d86919061454d565b92506f800000000000000000000000000000008282612da591906142e1565b612daf919061436a565b90506536e0f639b80081612dc391906142e1565b83612dce919061454d565b92506f800000000000000000000000000000008282612ded91906142e1565b612df7919061436a565b9050650618fee9f80081612e0b91906142e1565b83612e16919061454d565b92506f800000000000000000000000000000008282612e3591906142e1565b612e3f919061436a565b9050649c197dcc0081612e5291906142e1565b83612e5d919061454d565b92506f800000000000000000000000000000008282612e7c91906142e1565b612e86919061436a565b9050640e30dce40081612e9991906142e1565b83612ea4919061454d565b92506f800000000000000000000000000000008282612ec391906142e1565b612ecd919061436a565b905064012ebd130081612ee091906142e1565b83612eeb919061454d565b92506f800000000000000000000000000000008282612f0a91906142e1565b612f14919061436a565b90506317499f0081612f2691906142e1565b83612f31919061454d565b92506f800000000000000000000000000000008282612f5091906142e1565b612f5a919061436a565b90506301a9d48081612f6c91906142e1565b83612f77919061454d565b92506f800000000000000000000000000000008282612f9691906142e1565b612fa0919061436a565b9050621c638081612fb191906142e1565b83612fbc919061454d565b92506f800000000000000000000000000000008282612fdb91906142e1565b612fe5919061436a565b90506201c63881612ff691906142e1565b83613001919061454d565b92506f80000000000000000000000000000000828261302091906142e1565b61302a919061436a565b9050611ab88161303a91906142e1565b83613045919061454d565b92506f80000000000000000000000000000000828261306491906142e1565b61306e919061436a565b905061017c8161307e91906142e1565b83613089919061454d565b92506f8000000000000000000000000000000082826130a891906142e1565b6130b2919061436a565b90506014816130c191906142e1565b836130cc919061454d565b92506f8000000000000000000000000000000082826130eb91906142e1565b6130f5919061436a565b905060018161310491906142e1565b8361310f919061454d565b92506f80000000000000000000000000000000826721c3677c82b4000085613137919061436a565b613141919061454d565b61314b919061454d565b925060006f100000000000000000000000000000008616146131a35770018ebef9eac820ae8682b9793ac6d1e7767001c3d6a24ed82218787d624d3e5eba95f98461319691906142e1565b6131a0919061436a565b92505b60006f200000000000000000000000000000008616146131f9577001368b2fc6f9609fe7aceb46aa619baed470018ebef9eac820ae8682b9793ac6d1e778846131ec91906142e1565b6131f6919061436a565b92505b60006f4000000000000000000000000000000086161461324e576fbc5ab1b16779be3575bd8f0520a9f21f7001368b2fc6f9609fe7aceb46aa619baed58461324191906142e1565b61324b919061436a565b92505b60006f800000000000000000000000000000008616146132a2576f454aaa8efe072e7f6ddbab84b40a55c96fbc5ab1b16779be3575bd8f0520a9f21e8461329591906142e1565b61329f919061436a565b92505b60007001000000000000000000000000000000008616146132f7576f0960aadc109e7a3bf4578099615711ea6f454aaa8efe072e7f6ddbab84b40a55c5846132ea91906142e1565b6132f4919061436a565b92505b600070020000000000000000000000000000000086161461334b576e2bf84208204f5977f9a8cf01fdce3d6f0960aadc109e7a3bf4578099615711d78461333e91906142e1565b613348919061436a565b92505b600070040000000000000000000000000000000086161461339d576d03c6ab775dd0b95b4cbee7e65d116e2bf84208204f5977f9a8cf01fdc3078461339091906142e1565b61339a919061436a565b92505b829350505050919050565b600080602090506000607f90505b8060ff166001836133c79190614b55565b60ff16101561341d576000600282846133e09190614b55565b6133ea9190614b8c565b90508460088260ff166080811061340457613403614687565b5b01541061341357809250613417565b8091505b506133b6565b8360088260ff166080811061343557613434614687565b5b015410613446578092505050613485565b8360088360ff166080811061345e5761345d614687565b5b01541061346f578192505050613485565b600061347e5761347d614624565b5b6000925050505b919050565b60008083905060008360ff1685836134a291906142e1565b901c91506f03442c4e6074a82f1797f72ac0000000826134c291906142e1565b816134cd919061454d565b90508360ff1685836134df91906142e1565b901c91506f0116b96f757c380fb287fd0e40000000826134ff91906142e1565b8161350a919061454d565b90508360ff16858361351c91906142e1565b901c91506e45ae5bdd5f0e03eca1ff43900000008261353b91906142e1565b81613546919061454d565b90508360ff16858361355891906142e1565b901c91506e0defabf91302cd95b9ffda500000008261357791906142e1565b81613582919061454d565b90508360ff16858361359491906142e1565b901c91506e02529ca9832b22439efff9b8000000826135b391906142e1565b816135be919061454d565b90508360ff1685836135d091906142e1565b901c91506d54f1cf12bd04e516b6da88000000826135ee91906142e1565b816135f9919061454d565b90508360ff16858361360b91906142e1565b901c91506d0a9e39e257a09ca2d6db510000008261362991906142e1565b81613634919061454d565b90508360ff16858361364691906142e1565b901c91506d012e066e7b839fa050c3090000008261366491906142e1565b8161366f919061454d565b90508360ff16858361368191906142e1565b901c91506c1e33d7d926c329a1ad1a8000008261369e91906142e1565b816136a9919061454d565b90508360ff1685836136bb91906142e1565b901c91506c02bee513bdb4a6b19b5f800000826136d891906142e1565b816136e3919061454d565b90508360ff1685836136f591906142e1565b901c91506b3a9316fa79b88eccf2a000008261371191906142e1565b8161371c919061454d565b90508360ff16858361372e91906142e1565b901c91506b048177ebe1fa8123752000008261374a91906142e1565b81613755919061454d565b90508360ff16858361376791906142e1565b901c91506a5263fe90242dcbacf000008261378291906142e1565b8161378d919061454d565b90508360ff16858361379f91906142e1565b901c91506a057e22099c030d94100000826137ba91906142e1565b816137c5919061454d565b90508360ff1685836137d791906142e1565b901c91506957e22099c030d9410000826137f191906142e1565b816137fc919061454d565b90508360ff16858361380e91906142e1565b901c915069052b6b545699763100008261382891906142e1565b81613833919061454d565b90508360ff16858361384591906142e1565b901c9150684985f67696bf7480008261385e91906142e1565b81613869919061454d565b90508360ff16858361387b91906142e1565b901c91506803dea12ea99e4980008261389491906142e1565b8161389f919061454d565b90508360ff1685836138b191906142e1565b901c91506731880f2214b6e000826138c991906142e1565b816138d4919061454d565b90508360ff1685836138e691906142e1565b901c915067025bcff56eb36000826138fe91906142e1565b81613909919061454d565b90508360ff16858361391b91906142e1565b901c9150661b722e10ab10008261393291906142e1565b8161393d919061454d565b90508360ff16858361394f91906142e1565b901c91506601317c700770008261396691906142e1565b81613971919061454d565b90508360ff16858361398391906142e1565b901c9150650cba84aafa008261399991906142e1565b816139a4919061454d565b90508360ff1685836139b691906142e1565b901c91506482573a0a00826139cb91906142e1565b816139d6919061454d565b90508360ff1685836139e891906142e1565b901c91506405035ad900826139fd91906142e1565b81613a08919061454d565b90508360ff168583613a1a91906142e1565b901c9150632f881b0082613a2e91906142e1565b81613a39919061454d565b90508360ff168583613a4b91906142e1565b901c91506301b2934082613a5f91906142e1565b81613a6a919061454d565b90508360ff168583613a7c91906142e1565b901c9150620efc4082613a8f91906142e1565b81613a9a919061454d565b90508360ff168583613aac91906142e1565b901c9150617fe082613abe91906142e1565b81613ac9919061454d565b90508360ff168583613adb91906142e1565b901c915061042082613aed91906142e1565b81613af8919061454d565b90508360ff168583613b0a91906142e1565b901c9150602182613b1b91906142e1565b81613b26919061454d565b90508360ff168583613b3891906142e1565b901c9150600182613b4991906142e1565b81613b54919061454d565b90508360ff166001901b856f0688589cc0e9505e2f2fee558000000083613b7b919061436a565b613b85919061454d565b613b8f919061454d565b9250505092915050565b505050565b505050565b60008060009050610100831015613bde575b6001831115613bd957600183901c9250600181613bd29190614b55565b9050613bb5565b613c1f565b6000608090505b60008160ff161115613c1d578060ff166001901b8410613c0e578060ff1684901c935080821791505b60018160ff16901c9050613be5565b505b80915050919050565b828054613c3490614280565b90600052602060002090601f016020900481019282613c565760008555613c9d565b82601f10613c6f57805160ff1916838001178555613c9d565b82800160010185558215613c9d579182015b82811115613c9c578251825591602001919060010190613c81565b5b509050613caa9190613cae565b5090565b5b80821115613cc7576000816000905550600101613caf565b5090565b600081519050919050565b600082825260208201905092915050565b60005b83811015613d05578082015181840152602081019050613cea565b83811115613d14576000848401525b50505050565b6000601f19601f8301169050919050565b6000613d3682613ccb565b613d408185613cd6565b9350613d50818560208601613ce7565b613d5981613d1a565b840191505092915050565b60006020820190508181036000830152613d7e8184613d2b565b905092915050565b6000604051905090565b600080fd5b600080fd5b600073ffffffffffffffffffffffffffffffffffffffff82169050919050565b6000613dc582613d9a565b9050919050565b613dd581613dba565b8114613de057600080fd5b50565b600081359050613df281613dcc565b92915050565b6000819050919050565b613e0b81613df8565b8114613e1657600080fd5b50565b600081359050613e2881613e02565b92915050565b60008060408385031215613e4557613e44613d90565b5b6000613e5385828601613de3565b9250506020613e6485828601613e19565b9150509250929050565b60008115159050919050565b613e8381613e6e565b82525050565b6000602082019050613e9e6000830184613e7a565b92915050565b613ead81613df8565b82525050565b6000602082019050613ec86000830184613ea4565b92915050565b600080fd5b600080fd5b7f4e487b7100000000000000000000000000000000000000000000000000000000600052604160045260246000fd5b613f1082613d1a565b810181811067ffffffffffffffff82111715613f2f57613f2e613ed8565b5b80604052505050565b6000613f42613d86565b9050613f4e8282613f07565b919050565b600067ffffffffffffffff821115613f6e57613f6d613ed8565b5b613f7782613d1a565b9050602081019050919050565b82818337600083830152505050565b6000613fa6613fa184613f53565b613f38565b905082815260208101848484011115613fc257613fc1613ed3565b5b613fcd848285613f84565b509392505050565b600082601f830112613fea57613fe9613ece565b5b8135613ffa848260208601613f93565b91505092915050565b60008060006060848603121561401c5761401b613d90565b5b600084013567ffffffffffffffff81111561403a57614039613d95565b5b61404686828701613fd5565b935050602084013567ffffffffffffffff81111561406757614066613d95565b5b61407386828701613fd5565b925050604061408486828701613e19565b9150509250925092565b6000806000606084860312156140a7576140a6613d90565b5b60006140b586828701613de3565b93505060206140c686828701613de3565b92505060406140d786828701613e19565b9150509250925092565b6000602082840312156140f7576140f6613d90565b5b600061410584828501613de3565b91505092915050565b600060ff82169050919050565b6141248161410e565b82525050565b600060208201905061413f600083018461411b565b92915050565b600063ffffffff82169050919050565b61415e81614145565b811461416957600080fd5b50565b60008135905061417b81614155565b92915050565b6000806000806080858703121561419b5761419a613d90565b5b60006141a987828801613e19565b94505060206141ba87828801613e19565b93505060406141cb8782880161416c565b92505060606141dc8782880161416c565b91505092959194509250565b60006040820190506141fd6000830185613ea4565b61420a602083018461411b565b9392505050565b6000806040838503121561422857614227613d90565b5b600061423685828601613de3565b925050602061424785828601613de3565b9150509250929050565b7f4e487b7100000000000000000000000000000000000000000000000000000000600052602260045260246000fd5b6000600282049050600182168061429857607f821691505b602082108114156142ac576142ab614251565b5b50919050565b7f4e487b7100000000000000000000000000000000000000000000000000000000600052601160045260246000fd5b60006142ec82613df8565b91506142f783613df8565b9250817fffffffffffffffffffffffffffffffffffffffffffffffffffffffffffffffff04831182151516156143305761432f6142b2565b5b828202905092915050565b7f4e487b7100000000000000000000000000000000000000000000000000000000600052601260045260246000fd5b600061437582613df8565b915061438083613df8565b9250826143905761438f61433b565b5b828204905092915050565b60008160011c9050919050565b6000808291508390505b60018511156143f2578086048111156143ce576143cd6142b2565b5b60018516156143dd5780820291505b80810290506143eb8561439b565b94506143b2565b94509492505050565b60008261440b57600190506144c7565b8161441957600090506144c7565b816001811461442f576002811461443957614468565b60019150506144c7565b60ff84111561444b5761444a6142b2565b5b8360020a915084821115614462576144616142b2565b5b506144c7565b5060208310610133831016604e8410600b841016171561449d5782820a905083811115614498576144976142b2565b5b6144c7565b6144aa84848460016143a8565b925090508184048111156144c1576144c06142b2565b5b81810290505b9392505050565b60006144d982613df8565b91506144e483613df8565b92506145117fffffffffffffffffffffffffffffffffffffffffffffffffffffffffffffffff84846143fb565b905092915050565b600061452482613df8565b915061452f83613df8565b925082821015614542576145416142b2565b5b828203905092915050565b600061455882613df8565b915061456383613df8565b9250827fffffffffffffffffffffffffffffffffffffffffffffffffffffffffffffffff03821115614598576145976142b2565b5b828201905092915050565b60006145ae82613df8565b91507fffffffffffffffffffffffffffffffffffffffffffffffffffffffffffffffff8214156145e1576145e06142b2565b5b600182019050919050565b6145f581613dba565b82525050565b600060408201905061461060008301856145ec565b61461d6020830184613ea4565b9392505050565b7f4e487b7100000000000000000000000000000000000000000000000000000000600052600160045260246000fd5b600061465e8261410e565b91506146698361410e565b92508282101561467c5761467b6142b2565b5b828203905092915050565b7f4e487b7100000000000000000000000000000000000000000000000000000000600052603260045260246000fd5b7f45524332303a2064656372656173656420616c6c6f77616e63652062656c6f7760008201527f207a65726f000000000000000000000000000000000000000000000000000000602082015250565b6000614712602583613cd6565b915061471d826146b6565b604082019050919050565b6000602082019050818103600083015261474181614705565b9050919050565b7f45524332303a20617070726f76652066726f6d20746865207a65726f2061646460008201527f7265737300000000000000000000000000000000000000000000000000000000602082015250565b60006147a4602483613cd6565b91506147af82614748565b604082019050919050565b600060208201905081810360008301526147d381614797565b9050919050565b7f45524332303a20617070726f766520746f20746865207a65726f20616464726560008201527f7373000000000000000000000000000000000000000000000000000000000000602082015250565b6000614836602283613cd6565b9150614841826147da565b604082019050919050565b6000602082019050818103600083015261486581614829565b9050919050565b7f45524332303a206d696e7420746f20746865207a65726f206164647265737300600082015250565b60006148a2601f83613cd6565b91506148ad8261486c565b602082019050919050565b600060208201905081810360008301526148d181614895565b9050919050565b7f45524332303a20696e73756666696369656e7420616c6c6f77616e6365000000600082015250565b600061490e601d83613cd6565b9150614919826148d8565b602082019050919050565b6000602082019050818103600083015261493d81614901565b9050919050565b7f45524332303a207472616e736665722066726f6d20746865207a65726f20616460008201527f6472657373000000000000000000000000000000000000000000000000000000602082015250565b60006149a0602583613cd6565b91506149ab82614944565b604082019050919050565b600060208201905081810360008301526149cf81614993565b9050919050565b7f45524332303a207472616e7366657220746f20746865207a65726f206164647260008201527f6573730000000000000000000000000000000000000000000000000000000000602082015250565b6000614a32602383613cd6565b9150614a3d826149d6565b604082019050919050565b60006020820190508181036000830152614a6181614a25565b9050919050565b7f45524332303a207472616e7366657220616d6f756e742065786365656473206260008201527f616c616e63650000000000000000000000000000000000000000000000000000602082015250565b6000614ac4602683613cd6565b9150614acf82614a68565b604082019050919050565b60006020820190508181036000830152614af381614ab7565b9050919050565b6000614b058261410e565b91506000821415614b1957614b186142b2565b5b600182039050919050565b6000614b2f82613df8565b9150614b3a83613df8565b925082614b4a57614b4961433b565b5b828206905092915050565b6000614b608261410e565b9150614b6b8361410e565b92508260ff03821115614b8157614b806142b2565b5b828201905092915050565b6000614b978261410e565b9150614ba28361410e565b925082614bb257614bb161433b565b5b82820490509291505056fea264697066735822122035c6a2ffdd7fea3fa8ac1b04b217392c49a37a096b058173366b100f4d9c062064736f6c634300080a0033",
  "linkReferences": {},
  "deployedLinkReferences": {}
}